{
  "_format": "hh-sol-artifact-1",
  "contractName": "LicenseToken",
  "sourceName": "contracts/LicenseToken.sol",
  "abi": [
    {
      "inputs": [
        {
          "internalType": "address",
          "name": "_pictureTokenAddr",
          "type": "address"
        }
      ],
      "stateMutability": "nonpayable",
      "type": "constructor"
    },
    {
      "anonymous": false,
      "inputs": [
        {
          "indexed": true,
          "internalType": "address",
          "name": "owner",
          "type": "address"
        },
        {
          "indexed": true,
          "internalType": "address",
          "name": "approved",
          "type": "address"
        },
        {
          "indexed": true,
          "internalType": "uint256",
          "name": "tokenId",
          "type": "uint256"
        }
      ],
      "name": "Approval",
      "type": "event"
    },
    {
      "anonymous": false,
      "inputs": [
        {
          "indexed": true,
          "internalType": "address",
          "name": "owner",
          "type": "address"
        },
        {
          "indexed": true,
          "internalType": "address",
          "name": "operator",
          "type": "address"
        },
        {
          "indexed": false,
          "internalType": "bool",
          "name": "approved",
          "type": "bool"
        }
      ],
      "name": "ApprovalForAll",
      "type": "event"
    },
    {
      "anonymous": false,
      "inputs": [
        {
          "indexed": false,
          "internalType": "address",
          "name": "",
          "type": "address"
        },
        {
          "indexed": false,
          "internalType": "uint256",
          "name": "",
          "type": "uint256"
        },
        {
          "indexed": false,
          "internalType": "uint256",
          "name": "",
          "type": "uint256"
        },
        {
          "indexed": false,
          "internalType": "uint64",
          "name": "",
          "type": "uint64"
        },
        {
          "indexed": false,
          "internalType": "uint64",
          "name": "",
          "type": "uint64"
        },
        {
          "indexed": false,
          "internalType": "uint256",
          "name": "",
          "type": "uint256"
        },
        {
          "indexed": false,
          "internalType": "uint64",
          "name": "",
          "type": "uint64"
        }
      ],
      "name": "Mint",
      "type": "event"
    },
    {
      "anonymous": false,
      "inputs": [
        {
          "indexed": true,
          "internalType": "address",
          "name": "previousOwner",
          "type": "address"
        },
        {
          "indexed": true,
          "internalType": "address",
          "name": "newOwner",
          "type": "address"
        }
      ],
      "name": "OwnershipTransferred",
      "type": "event"
    },
    {
      "anonymous": false,
      "inputs": [
        {
          "indexed": false,
          "internalType": "address",
          "name": "_pictureTokenAddr",
          "type": "address"
        }
      ],
      "name": "SetPictureTokenAddress",
      "type": "event"
    },
    {
      "anonymous": false,
      "inputs": [
        {
          "indexed": true,
          "internalType": "address",
          "name": "from",
          "type": "address"
        },
        {
          "indexed": true,
          "internalType": "address",
          "name": "to",
          "type": "address"
        },
        {
          "indexed": true,
          "internalType": "uint256",
          "name": "tokenId",
          "type": "uint256"
        }
      ],
      "name": "Transfer",
      "type": "event"
    },
    {
      "inputs": [
        {
          "internalType": "address",
          "name": "to",
          "type": "address"
        },
        {
          "internalType": "uint256",
          "name": "tokenId",
          "type": "uint256"
        }
      ],
      "name": "approve",
      "outputs": [],
      "stateMutability": "nonpayable",
      "type": "function"
    },
    {
      "inputs": [
        {
          "internalType": "address",
          "name": "owner",
          "type": "address"
        }
      ],
      "name": "balanceOf",
      "outputs": [
        {
          "internalType": "uint256",
          "name": "",
          "type": "uint256"
        }
      ],
      "stateMutability": "view",
      "type": "function"
    },
    {
      "inputs": [
        {
          "internalType": "bytes",
          "name": "bys",
          "type": "bytes"
        }
      ],
      "name": "bytesToAddress",
      "outputs": [
        {
          "internalType": "address",
          "name": "addr",
          "type": "address"
        }
      ],
      "stateMutability": "pure",
      "type": "function"
    },
    {
      "inputs": [
        {
          "internalType": "uint256",
          "name": "tokenId",
          "type": "uint256"
        }
      ],
      "name": "getApproved",
      "outputs": [
        {
          "internalType": "address",
          "name": "",
          "type": "address"
        }
      ],
      "stateMutability": "view",
      "type": "function"
    },
    {
      "inputs": [
        {
          "internalType": "uint256",
          "name": "_licenseTokenId",
          "type": "uint256"
        }
      ],
      "name": "getLicenseTokenInfo",
      "outputs": [
        {
          "internalType": "uint256",
          "name": "",
          "type": "uint256"
        },
        {
          "internalType": "uint256",
          "name": "",
          "type": "uint256"
        },
        {
          "internalType": "uint64",
          "name": "",
          "type": "uint64"
        },
        {
          "internalType": "uint64",
          "name": "",
          "type": "uint64"
        },
        {
          "internalType": "bool",
          "name": "",
          "type": "bool"
        }
      ],
      "stateMutability": "view",
      "type": "function"
    },
    {
      "inputs": [],
      "name": "getPictureTokenAddress",
      "outputs": [
        {
          "internalType": "address",
          "name": "",
          "type": "address"
        }
      ],
      "stateMutability": "view",
      "type": "function"
    },
    {
      "inputs": [
        {
          "internalType": "uint256",
          "name": "_licenseTokenId",
          "type": "uint256"
        }
      ],
      "name": "getPictureTokenId",
      "outputs": [
        {
          "internalType": "uint256",
          "name": "",
          "type": "uint256"
        }
      ],
      "stateMutability": "view",
      "type": "function"
    },
    {
      "inputs": [
        {
          "internalType": "address",
          "name": "owner",
          "type": "address"
        },
        {
          "internalType": "address",
          "name": "operator",
          "type": "address"
        }
      ],
      "name": "isApprovedForAll",
      "outputs": [
        {
          "internalType": "bool",
          "name": "",
          "type": "bool"
        }
      ],
      "stateMutability": "view",
      "type": "function"
    },
    {
      "inputs": [],
      "name": "name",
      "outputs": [
        {
          "internalType": "string",
          "name": "",
          "type": "string"
        }
      ],
      "stateMutability": "view",
      "type": "function"
    },
    {
      "inputs": [],
      "name": "owner",
      "outputs": [
        {
          "internalType": "address",
          "name": "",
          "type": "address"
        }
      ],
      "stateMutability": "view",
      "type": "function"
    },
    {
      "inputs": [
        {
          "internalType": "uint256",
          "name": "tokenId",
          "type": "uint256"
        }
      ],
      "name": "ownerOf",
      "outputs": [
        {
          "internalType": "address",
          "name": "",
          "type": "address"
        }
      ],
      "stateMutability": "view",
      "type": "function"
    },
    {
      "inputs": [],
      "name": "renounceOwnership",
      "outputs": [],
      "stateMutability": "nonpayable",
      "type": "function"
    },
    {
      "inputs": [
        {
          "internalType": "address",
          "name": "_to",
          "type": "address"
        },
        {
          "internalType": "uint256",
          "name": "_pictureTokenId",
          "type": "uint256"
        },
        {
          "internalType": "uint64",
          "name": "_startTime",
          "type": "uint64"
        },
        {
          "internalType": "uint64",
          "name": "_endTime",
          "type": "uint64"
        },
        {
          "internalType": "uint256",
          "name": "_quantity",
          "type": "uint256"
        },
        {
          "internalType": "string",
          "name": "tokenUri",
          "type": "string"
        },
        {
          "internalType": "uint64",
          "name": "_randomNum",
          "type": "uint64"
        }
      ],
      "name": "safeMint",
      "outputs": [],
      "stateMutability": "nonpayable",
      "type": "function"
    },
    {
      "inputs": [
        {
          "internalType": "address",
          "name": "from",
          "type": "address"
        },
        {
          "internalType": "address",
          "name": "to",
          "type": "address"
        },
        {
          "internalType": "uint256",
          "name": "tokenId",
          "type": "uint256"
        }
      ],
      "name": "safeTransferFrom",
      "outputs": [],
      "stateMutability": "nonpayable",
      "type": "function"
    },
    {
      "inputs": [
        {
          "internalType": "address",
          "name": "from",
          "type": "address"
        },
        {
          "internalType": "address",
          "name": "to",
          "type": "address"
        },
        {
          "internalType": "uint256",
          "name": "tokenId",
          "type": "uint256"
        },
        {
          "internalType": "bytes",
          "name": "_data",
          "type": "bytes"
        }
      ],
      "name": "safeTransferFrom",
      "outputs": [],
      "stateMutability": "nonpayable",
      "type": "function"
    },
    {
      "inputs": [
        {
          "internalType": "address",
          "name": "operator",
          "type": "address"
        },
        {
          "internalType": "bool",
          "name": "approved",
          "type": "bool"
        }
      ],
      "name": "setApprovalForAll",
      "outputs": [],
      "stateMutability": "nonpayable",
      "type": "function"
    },
    {
      "inputs": [
        {
          "internalType": "address",
          "name": "_addr",
          "type": "address"
        }
      ],
      "name": "setPictureTokenAddress",
      "outputs": [],
      "stateMutability": "nonpayable",
      "type": "function"
    },
    {
      "inputs": [
        {
          "internalType": "bytes4",
          "name": "interfaceId",
          "type": "bytes4"
        }
      ],
      "name": "supportsInterface",
      "outputs": [
        {
          "internalType": "bool",
          "name": "",
          "type": "bool"
        }
      ],
      "stateMutability": "view",
      "type": "function"
    },
    {
      "inputs": [],
      "name": "symbol",
      "outputs": [
        {
          "internalType": "string",
          "name": "",
          "type": "string"
        }
      ],
      "stateMutability": "view",
      "type": "function"
    },
    {
      "inputs": [
        {
          "internalType": "uint256",
          "name": "index",
          "type": "uint256"
        }
      ],
      "name": "tokenByIndex",
      "outputs": [
        {
          "internalType": "uint256",
          "name": "",
          "type": "uint256"
        }
      ],
      "stateMutability": "view",
      "type": "function"
    },
    {
      "inputs": [
        {
          "internalType": "address",
          "name": "owner",
          "type": "address"
        },
        {
          "internalType": "uint256",
          "name": "index",
          "type": "uint256"
        }
      ],
      "name": "tokenOfOwnerByIndex",
      "outputs": [
        {
          "internalType": "uint256",
          "name": "",
          "type": "uint256"
        }
      ],
      "stateMutability": "view",
      "type": "function"
    },
    {
      "inputs": [
        {
          "internalType": "uint256",
          "name": "tokenId",
          "type": "uint256"
        }
      ],
      "name": "tokenURI",
      "outputs": [
        {
          "internalType": "string",
          "name": "",
          "type": "string"
        }
      ],
      "stateMutability": "view",
      "type": "function"
    },
    {
      "inputs": [],
      "name": "totalSupply",
      "outputs": [
        {
          "internalType": "uint256",
          "name": "",
          "type": "uint256"
        }
      ],
      "stateMutability": "view",
      "type": "function"
    },
    {
      "inputs": [
        {
          "internalType": "address",
          "name": "from",
          "type": "address"
        },
        {
          "internalType": "address",
          "name": "to",
          "type": "address"
        },
        {
          "internalType": "uint256",
          "name": "tokenId",
          "type": "uint256"
        }
      ],
      "name": "transferFrom",
      "outputs": [],
      "stateMutability": "nonpayable",
      "type": "function"
    },
    {
      "inputs": [
        {
          "internalType": "address",
          "name": "newOwner",
          "type": "address"
        }
      ],
      "name": "transferOwnership",
      "outputs": [],
      "stateMutability": "nonpayable",
      "type": "function"
    }
  ],
  "bytecode": "0x60806040523480156200001157600080fd5b506040516200265038038062002650833981016040819052620000349162000297565b604080518082018252600c81526b2634b1b2b739b2aa37b5b2b760a11b6020808301918252835180850190945260038452624c494360e81b9084015281519192916200008391600091620001f1565b50805162000099906001906020840190620001f1565b5050506000620000ae6200010e60201b60201c565b600a80546001600160a01b0319166001600160a01b038316908117909155604051919250906000907f8be0079c531659141344cd1fd0a4f28419497f9722a3daafe3b4186f6b6457e0908290a350620001078162000112565b5062000377565b3390565b6200011c6200010e565b6001600160a01b03166200012f620001e2565b6001600160a01b031614620001615760405162461bcd60e51b81526004016200015890620002db565b60405180910390fd5b6001600160a01b0381166200018a5760405162461bcd60e51b8152600401620001589062000310565b600b80546001600160a01b0319166001600160a01b0383161790556040517f76c35f132a779aefe116b8d165bc36c7e230c7144d2fb3dde214ac8ef930cb7b90620001d7908390620002c7565b60405180910390a150565b600a546001600160a01b031690565b828054620001ff906200033a565b90600052602060002090601f0160209004810192826200022357600085556200026e565b82601f106200023e57805160ff19168380011785556200026e565b828001600101855582156200026e579182015b828111156200026e57825182559160200191906001019062000251565b506200027c92915062000280565b5090565b5b808211156200027c576000815560010162000281565b600060208284031215620002a9578081fd5b81516001600160a01b0381168114620002c0578182fd5b9392505050565b6001600160a01b0391909116815260200190565b6020808252818101527f4f776e61626c653a2063616c6c6572206973206e6f7420746865206f776e6572604082015260600190565b60208082526010908201526f6164647265737320697320656d70747960801b604082015260600190565b6002810460018216806200034f57607f821691505b602082108114156200037157634e487b7160e01b600052602260045260246000fd5b50919050565b6122c980620003876000396000f3fe608060405234801561001057600080fd5b50600436106101a35760003560e01c806370a08231116100ee57806395d89b4111610097578063c87b56dd11610071578063c87b56dd14610345578063da58ff0e14610358578063e985e9c51461036b578063f2fde38b1461037e576101a3565b806395d89b4114610317578063a22cb4651461031f578063b88d4fde14610332576101a3565b80637e9cabb1116100c85780637e9cabb1146102f457806388013d69146103075780638da5cb5b1461030f576101a3565b806370a08231146102b5578063715018a6146102c8578063722a395c146102d0576101a3565b80632f745c59116101505780634f6ccce71161012a5780634f6ccce71461027c57806357c9076f1461028f5780636352211e146102a2576101a3565b80632f745c591461024357806342526e4e1461025657806342842e0e14610269576101a3565b8063095ea7b311610181578063095ea7b31461020657806318160ddd1461021b57806323b872dd14610230576101a3565b806301ffc9a7146101a857806306fdde03146101d1578063081812fc146101e6575b600080fd5b6101bb6101b63660046118f9565b610391565b6040516101c89190611b54565b60405180910390f35b6101d96103be565b6040516101c89190611b5f565b6101f96101f4366004611964565b610450565b6040516101c89190611abd565b61021961021436600461182c565b61049c565b005b610223610534565b6040516101c8919061219d565b61021961023e366004611751565b61053a565b61022361025136600461182c565b610572565b6101f9610264366004611931565b6105c4565b610219610277366004611751565b6105cb565b61022361028a366004611964565b6105e6565b61021961029d366004611705565b610641565b6101f96102b0366004611964565b6106fc565b6102236102c3366004611705565b610731565b610219610775565b6102e36102de366004611964565b6107fe565b6040516101c89594939291906121a6565b610219610302366004611855565b610870565b6101f9610a17565b6101f9610a26565b6101d9610a35565b61021961032d3660046117f2565b610a44565b61021961034036600461178c565b610b12565b6101d9610353366004611964565b610b51565b610223610366366004611964565b610bb2565b6101bb61037936600461171f565b610bc4565b61021961038c366004611705565b610bf2565b60006001600160e01b0319821663780e9d6360e01b14806103b657506103b682610cb3565b90505b919050565b6060600080546103cd9061223c565b80601f01602080910402602001604051908101604052809291908181526020018280546103f99061223c565b80156104465780601f1061041b57610100808354040283529160200191610446565b820191906000526020600020905b81548152906001019060200180831161042957829003601f168201915b5050505050905090565b600061045b82610cf3565b6104805760405162461bcd60e51b815260040161047790611f30565b60405180910390fd5b506000908152600460205260409020546001600160a01b031690565b60006104a7826106fc565b9050806001600160a01b0316836001600160a01b031614156104db5760405162461bcd60e51b81526004016104779061206b565b806001600160a01b03166104ed610d10565b6001600160a01b03161480610509575061050981610379610d10565b6105255760405162461bcd60e51b815260040161047790611de4565b61052f8383610d14565b505050565b60085490565b61054b610545610d10565b82610d82565b6105675760405162461bcd60e51b8152600401610477906120ac565b61052f838383610e07565b600061057d83610731565b821061059b5760405162461bcd60e51b815260040161047790611b72565b506001600160a01b03919091166000908152600660209081526040808320938352929052205490565b6020015190565b61052f83838360405180602001604052806000815250610b12565b60006105f0610534565b821061060e5760405162461bcd60e51b815260040161047790612109565b6008828154811061062f57634e487b7160e01b600052603260045260246000fd5b90600052602060002001549050919050565b610649610d10565b6001600160a01b031661065a610a26565b6001600160a01b0316146106805760405162461bcd60e51b815260040161047790611f7c565b6001600160a01b0381166106a65760405162461bcd60e51b815260040161047790612166565b600b80546001600160a01b0319166001600160a01b0383161790556040517f76c35f132a779aefe116b8d165bc36c7e230c7144d2fb3dde214ac8ef930cb7b906106f1908390611abd565b60405180910390a150565b6000818152600260205260408120546001600160a01b0316806103b65760405162461bcd60e51b815260040161047790611e9e565b60006001600160a01b0382166107595760405162461bcd60e51b815260040161047790611e41565b506001600160a01b031660009081526003602052604090205490565b61077d610d10565b6001600160a01b031661078e610a26565b6001600160a01b0316146107b45760405162461bcd60e51b815260040161047790611f7c565b600a546040516000916001600160a01b0316907f8be0079c531659141344cd1fd0a4f28419497f9722a3daafe3b4186f6b6457e0908390a3600a80546001600160a01b0319169055565b6000908152600c6020908152604091829020825160a0810184528154808252600183015493820184905260029092015467ffffffffffffffff8082169583018690526801000000000000000082041660608301819052600160801b90910460ff16151560809092018290529194929392565b8686600061087d82610f34565b9050826001600160a01b0316816001600160a01b0316146108b05760405162461bcd60e51b815260040161047790611d3b565b600085856040516020016108c5929190611a73565b6040516020818303038152906040528051906020012060c01c90506108f48b8267ffffffffffffffff16610ff4565b6109088167ffffffffffffffff1687611012565b6040805160a0810182528b815260208082018a815267ffffffffffffffff808e168486019081528d8216606086019081526001608087018181528985166000908152600c90975295889020965187559351938601939093555160029094018054925193511515600160801b0270ff000000000000000000000000000000001994831668010000000000000000026fffffffffffffffff0000000000000000199690931667ffffffffffffffff1990941693909317949094161791909116179055517f087561a594334aac7ce3b7f6fb141d8ae3afdc0f3dd0aabfe931d39ff9d6cf2990610a02908d908d9085908e908e908e908d90611b0d565b60405180910390a15050505050505050505050565b600b546001600160a01b031690565b600a546001600160a01b031690565b6060600180546103cd9061223c565b610a4c610d10565b6001600160a01b0316826001600160a01b03161415610a7d5760405162461bcd60e51b815260040161047790611d04565b8060056000610a8a610d10565b6001600160a01b03908116825260208083019390935260409182016000908120918716808252919093529120805460ff191692151592909217909155610ace610d10565b6001600160a01b03167f17307eab39ab6107e8899845ad3d59bd9653f200f220920489ca2b5937696c3183604051610b069190611b54565b60405180910390a35050565b610b23610b1d610d10565b83610d82565b610b3f5760405162461bcd60e51b8152600401610477906120ac565b610b4b84848484611031565b50505050565b6060610b5c82610cf3565b610b785760405162461bcd60e51b81526004016104779061200e565b6000610b82611064565b90506000815111610ba25760405180602001604052806000815250610bab565b610bab8361109b565b9392505050565b6000908152600c602052604090205490565b6001600160a01b03918216600090815260056020908152604080832093909416825291909152205460ff1690565b610bfa610d10565b6001600160a01b0316610c0b610a26565b6001600160a01b031614610c315760405162461bcd60e51b815260040161047790611f7c565b6001600160a01b038116610c575760405162461bcd60e51b815260040161047790611c2c565b600a546040516001600160a01b038084169216907f8be0079c531659141344cd1fd0a4f28419497f9722a3daafe3b4186f6b6457e090600090a3600a80546001600160a01b0319166001600160a01b0392909216919091179055565b60006001600160e01b031982166380ac58cd60e01b1480610ce457506001600160e01b03198216635b5e139f60e01b145b806103b657506103b6826110db565b6000908152600260205260409020546001600160a01b0316151590565b3390565b600081815260046020526040902080546001600160a01b0319166001600160a01b0384169081179091558190610d49826106fc565b6001600160a01b03167f8c5be1e5ebec7d5bd14f71427d1e84f3dd0314c0f7b2291e5b200ac8c7c3b92560405160405180910390a45050565b6000610d8d82610cf3565b610da95760405162461bcd60e51b815260040161047790611d98565b6000610db4836106fc565b9050806001600160a01b0316846001600160a01b03161480610def5750836001600160a01b0316610de484610450565b6001600160a01b0316145b80610dff5750610dff8185610bc4565b949350505050565b826001600160a01b0316610e1a826106fc565b6001600160a01b031614610e405760405162461bcd60e51b815260040161047790611fb1565b6001600160a01b038216610e665760405162461bcd60e51b815260040161047790611cc0565b610e718383836110f4565b610e7c600082610d14565b6001600160a01b0383166000908152600360205260408120805460019290610ea59084906121f9565b90915550506001600160a01b0382166000908152600360205260408120805460019290610ed39084906121e1565b909155505060008181526002602052604080822080546001600160a01b0319166001600160a01b0386811691821790925591518493918716917fddf252ad1be2c89b69c2b068fc378daa952ba7f163c4a11628f55a4df523b3ef91a4505050565b600b5460405160009182916001600160a01b0390911690610f5990859060240161219d565b60408051601f198184030181529181526020820180517bffffffffffffffffffffffffffffffffffffffffffffffffffffffff166331a9108f60e11b17905251610fa391906119a8565b6000604051808303816000865af19150503d8060008114610fe0576040519150601f19603f3d011682016040523d82523d6000602084013e610fe5565b606091505b509150506000610dff826105c4565b61100e82826040518060200160405280600081525061117d565b5050565b6000828152600d60209081526040909120825161052f928401906115ae565b61103c848484610e07565b611048848484846111b0565b610b4b5760405162461bcd60e51b815260040161047790611bcf565b60408051808201909152600781527f697066733a2f2f00000000000000000000000000000000000000000000000000602082015290565b60606110a5611064565b6000838152600d602090815260409182902091516110c5939291016119c4565b6040516020818303038152906040529050919050565b6001600160e01b031981166301ffc9a760e01b14919050565b6110ff83838361052f565b6001600160a01b03831661111b57611116816112cb565b61113e565b816001600160a01b0316836001600160a01b03161461113e5761113e838261130f565b6001600160a01b03821661115a57611155816113ac565b61052f565b826001600160a01b0316826001600160a01b03161461052f5761052f8282611485565b61118783836114c9565b61119460008484846111b0565b61052f5760405162461bcd60e51b815260040161047790611bcf565b60006111c4846001600160a01b03166115a8565b156112c057836001600160a01b031663150b7a026111e0610d10565b8786866040518563ffffffff1660e01b81526004016112029493929190611ad1565b602060405180830381600087803b15801561121c57600080fd5b505af192505050801561124c575060408051601f3d908101601f1916820190925261124991810190611915565b60015b6112a6573d80801561127a576040519150601f19603f3d011682016040523d82523d6000602084013e61127f565b606091505b50805161129e5760405162461bcd60e51b815260040161047790611bcf565b805181602001fd5b6001600160e01b031916630a85bd0160e11b149050610dff565b506001949350505050565b600880546000838152600960205260408120829055600182018355919091527ff3f7a9fe364faab93b216da50a3214154f22a0a2b415b23a84c8169e8b636ee30155565b6000600161131c84610731565b61132691906121f9565b600083815260076020526040902054909150808214611379576001600160a01b03841660009081526006602090815260408083208584528252808320548484528184208190558352600790915290208190555b5060009182526007602090815260408084208490556001600160a01b039094168352600681528383209183525290812055565b6008546000906113be906001906121f9565b600083815260096020526040812054600880549394509092849081106113f457634e487b7160e01b600052603260045260246000fd5b90600052602060002001549050806008838154811061142357634e487b7160e01b600052603260045260246000fd5b600091825260208083209091019290925582815260099091526040808220849055858252812055600880548061146957634e487b7160e01b600052603160045260246000fd5b6001900381819060005260206000200160009055905550505050565b600061149083610731565b6001600160a01b039093166000908152600660209081526040808320868452825280832085905593825260079052919091209190915550565b6001600160a01b0382166114ef5760405162461bcd60e51b815260040161047790611efb565b6114f881610cf3565b156115155760405162461bcd60e51b815260040161047790611c89565b611521600083836110f4565b6001600160a01b038216600090815260036020526040812080546001929061154a9084906121e1565b909155505060008181526002602052604080822080546001600160a01b0319166001600160a01b03861690811790915590518392907fddf252ad1be2c89b69c2b068fc378daa952ba7f163c4a11628f55a4df523b3ef908290a45050565b3b151590565b8280546115ba9061223c565b90600052602060002090601f0160209004810192826115dc5760008555611622565b82601f106115f557805160ff1916838001178555611622565b82800160010185558215611622579182015b82811115611622578251825591602001919060010190611607565b5061162e929150611632565b5090565b5b8082111561162e5760008155600101611633565b600067ffffffffffffffff808411156116625761166261228d565b604051601f8501601f1916810160200182811182821017156116865761168661228d565b60405284815291508183850186101561169e57600080fd5b8484602083013760006020868301015250509392505050565b80356001600160a01b03811681146103b957600080fd5b600082601f8301126116de578081fd5b610bab83833560208501611647565b803567ffffffffffffffff811681146103b957600080fd5b600060208284031215611716578081fd5b610bab826116b7565b60008060408385031215611731578081fd5b61173a836116b7565b9150611748602084016116b7565b90509250929050565b600080600060608486031215611765578081fd5b61176e846116b7565b925061177c602085016116b7565b9150604084013590509250925092565b600080600080608085870312156117a1578081fd5b6117aa856116b7565b93506117b8602086016116b7565b925060408501359150606085013567ffffffffffffffff8111156117da578182fd5b6117e6878288016116ce565b91505092959194509250565b60008060408385031215611804578182fd5b61180d836116b7565b915060208301358015158114611821578182fd5b809150509250929050565b6000806040838503121561183e578182fd5b611847836116b7565b946020939093013593505050565b600080600080600080600060e0888a03121561186f578283fd5b611878886116b7565b96506020880135955061188d604089016116ed565b945061189b606089016116ed565b93506080880135925060a088013567ffffffffffffffff8111156118bd578283fd5b8801601f81018a136118cd578283fd5b6118dc8a823560208401611647565b9250506118eb60c089016116ed565b905092959891949750929550565b60006020828403121561190a578081fd5b8135610bab816122a3565b600060208284031215611926578081fd5b8151610bab816122a3565b600060208284031215611942578081fd5b813567ffffffffffffffff811115611958578182fd5b610dff848285016116ce565b600060208284031215611975578081fd5b5035919050565b60008151808452611994816020860160208601612210565b601f01601f19169290920160200192915050565b600082516119ba818460208701612210565b9190910192915050565b6000835160206119d78285838901612210565b8454918401918390600281046001808316806119f457607f831692505b858310811415611a1257634e487b7160e01b88526022600452602488fd5b808015611a265760018114611a3757611a63565b60ff19851688528388019550611a63565b611a408b6121d5565b895b85811015611a5b5781548a820152908401908801611a42565b505083880195505b50939a9950505050505050505050565b60008351611a85818460208801612210565b60c09390931b7fffffffffffffffff000000000000000000000000000000000000000000000000169190920190815260080192915050565b6001600160a01b0391909116815260200190565b60006001600160a01b03808716835280861660208401525083604083015260806060830152611b03608083018461197c565b9695505050505050565b6001600160a01b03979097168752602087019590955267ffffffffffffffff938416604087015291831660608601528216608085015260a08401521660c082015260e00190565b901515815260200190565b600060208252610bab602083018461197c565b6020808252602b908201527f455243373231456e756d657261626c653a206f776e657220696e646578206f7560408201527f74206f6620626f756e6473000000000000000000000000000000000000000000606082015260800190565b60208082526032908201527f4552433732313a207472616e7366657220746f206e6f6e20455243373231526560408201527f63656976657220696d706c656d656e7465720000000000000000000000000000606082015260800190565b60208082526026908201527f4f776e61626c653a206e6577206f776e657220697320746865207a65726f206160408201527f6464726573730000000000000000000000000000000000000000000000000000606082015260800190565b6020808252601c908201527f4552433732313a20746f6b656e20616c7265616479206d696e74656400000000604082015260600190565b60208082526024908201527f4552433732313a207472616e7366657220746f20746865207a65726f206164646040820152637265737360e01b606082015260800190565b60208082526019908201527f4552433732313a20617070726f766520746f2063616c6c657200000000000000604082015260600190565b60208082526025908201527f546f6b656e206f776e6572206d757374206265207468652073616d652061646460408201527f726573732e000000000000000000000000000000000000000000000000000000606082015260800190565b6020808252602c908201527f4552433732313a206f70657261746f7220717565727920666f72206e6f6e657860408201526b34b9ba32b73a103a37b5b2b760a11b606082015260800190565b60208082526038908201527f4552433732313a20617070726f76652063616c6c6572206973206e6f74206f7760408201527f6e6572206e6f7220617070726f76656420666f7220616c6c0000000000000000606082015260800190565b6020808252602a908201527f4552433732313a2062616c616e636520717565727920666f7220746865207a6560408201527f726f206164647265737300000000000000000000000000000000000000000000606082015260800190565b60208082526029908201527f4552433732313a206f776e657220717565727920666f72206e6f6e657869737460408201527f656e7420746f6b656e0000000000000000000000000000000000000000000000606082015260800190565b6020808252818101527f4552433732313a206d696e7420746f20746865207a65726f2061646472657373604082015260600190565b6020808252602c908201527f4552433732313a20617070726f76656420717565727920666f72206e6f6e657860408201526b34b9ba32b73a103a37b5b2b760a11b606082015260800190565b6020808252818101527f4f776e61626c653a2063616c6c6572206973206e6f7420746865206f776e6572604082015260600190565b60208082526029908201527f4552433732313a207472616e73666572206f6620746f6b656e2074686174206960408201527f73206e6f74206f776e0000000000000000000000000000000000000000000000606082015260800190565b6020808252602f908201527f4552433732314d657461646174613a2055524920717565727920666f72206e6f60408201527f6e6578697374656e7420746f6b656e0000000000000000000000000000000000606082015260800190565b60208082526021908201527f4552433732313a20617070726f76616c20746f2063757272656e74206f776e656040820152603960f91b606082015260800190565b60208082526031908201527f4552433732313a207472616e736665722063616c6c6572206973206e6f74206f60408201527f776e6572206e6f7220617070726f766564000000000000000000000000000000606082015260800190565b6020808252602c908201527f455243373231456e756d657261626c653a20676c6f62616c20696e646578206f60408201527f7574206f6620626f756e64730000000000000000000000000000000000000000606082015260800190565b60208082526010908201527f6164647265737320697320656d70747900000000000000000000000000000000604082015260600190565b90815260200190565b948552602085019390935267ffffffffffffffff91821660408501521660608301521515608082015260a00190565b60009081526020902090565b600082198211156121f4576121f4612277565b500190565b60008282101561220b5761220b612277565b500390565b60005b8381101561222b578181015183820152602001612213565b83811115610b4b5750506000910152565b60028104600182168061225057607f821691505b6020821081141561227157634e487b7160e01b600052602260045260246000fd5b50919050565b634e487b7160e01b600052601160045260246000fd5b634e487b7160e01b600052604160045260246000fd5b6001600160e01b0319811681146122b957600080fd5b5056fea164736f6c6343000800000a",
  "linkReferences": {},
  "deployedLinkReferences": {}
}