{
  "_format": "hh-sol-artifact-1",
  "contractName": "LicenseToken",
  "sourceName": "contracts/LicenseToken.sol",
  "abi": [
    {
      "inputs": [
        {
          "internalType": "address",
          "name": "_pictureTokenAddr",
          "type": "address"
        }
      ],
      "stateMutability": "nonpayable",
      "type": "constructor"
    },
    {
      "anonymous": false,
      "inputs": [
        {
          "indexed": true,
          "internalType": "address",
          "name": "owner",
          "type": "address"
        },
        {
          "indexed": true,
          "internalType": "address",
          "name": "approved",
          "type": "address"
        },
        {
          "indexed": true,
          "internalType": "uint256",
          "name": "tokenId",
          "type": "uint256"
        }
      ],
      "name": "Approval",
      "type": "event"
    },
    {
      "anonymous": false,
      "inputs": [
        {
          "indexed": true,
          "internalType": "address",
          "name": "owner",
          "type": "address"
        },
        {
          "indexed": true,
          "internalType": "address",
          "name": "operator",
          "type": "address"
        },
        {
          "indexed": false,
          "internalType": "bool",
          "name": "approved",
          "type": "bool"
        }
      ],
      "name": "ApprovalForAll",
      "type": "event"
    },
    {
      "anonymous": false,
      "inputs": [
        {
          "indexed": false,
          "internalType": "address",
          "name": "",
          "type": "address"
        },
        {
          "indexed": false,
          "internalType": "uint256",
          "name": "",
          "type": "uint256"
        },
        {
          "indexed": false,
          "internalType": "uint256",
          "name": "",
          "type": "uint256"
        },
        {
          "indexed": false,
          "internalType": "uint64",
          "name": "",
          "type": "uint64"
        },
        {
          "indexed": false,
          "internalType": "uint64",
          "name": "",
          "type": "uint64"
        },
        {
          "indexed": false,
          "internalType": "uint256",
          "name": "",
          "type": "uint256"
        }
      ],
      "name": "Mint",
      "type": "event"
    },
    {
      "anonymous": false,
      "inputs": [
        {
          "indexed": true,
          "internalType": "address",
          "name": "previousOwner",
          "type": "address"
        },
        {
          "indexed": true,
          "internalType": "address",
          "name": "newOwner",
          "type": "address"
        }
      ],
      "name": "OwnershipTransferred",
      "type": "event"
    },
    {
      "anonymous": false,
      "inputs": [
        {
          "indexed": false,
          "internalType": "address",
          "name": "_pictureTokenAddr",
          "type": "address"
        }
      ],
      "name": "SetPictureTokenAddress",
      "type": "event"
    },
    {
      "anonymous": false,
      "inputs": [
        {
          "indexed": true,
          "internalType": "address",
          "name": "from",
          "type": "address"
        },
        {
          "indexed": true,
          "internalType": "address",
          "name": "to",
          "type": "address"
        },
        {
          "indexed": true,
          "internalType": "uint256",
          "name": "tokenId",
          "type": "uint256"
        }
      ],
      "name": "Transfer",
      "type": "event"
    },
    {
      "inputs": [
        {
          "internalType": "address",
          "name": "to",
          "type": "address"
        },
        {
          "internalType": "uint256",
          "name": "tokenId",
          "type": "uint256"
        }
      ],
      "name": "approve",
      "outputs": [],
      "stateMutability": "nonpayable",
      "type": "function"
    },
    {
      "inputs": [
        {
          "internalType": "address",
          "name": "owner",
          "type": "address"
        }
      ],
      "name": "balanceOf",
      "outputs": [
        {
          "internalType": "uint256",
          "name": "",
          "type": "uint256"
        }
      ],
      "stateMutability": "view",
      "type": "function"
    },
    {
      "inputs": [
        {
          "internalType": "bytes",
          "name": "bys",
          "type": "bytes"
        }
      ],
      "name": "bytesToAddress",
      "outputs": [
        {
          "internalType": "address",
          "name": "addr",
          "type": "address"
        }
      ],
      "stateMutability": "pure",
      "type": "function"
    },
    {
      "inputs": [
        {
          "internalType": "uint256",
          "name": "tokenId",
          "type": "uint256"
        }
      ],
      "name": "getApproved",
      "outputs": [
        {
          "internalType": "address",
          "name": "",
          "type": "address"
        }
      ],
      "stateMutability": "view",
      "type": "function"
    },
    {
      "inputs": [
        {
          "internalType": "uint256",
          "name": "_licenseTokenId",
          "type": "uint256"
        }
      ],
      "name": "getLicenseTokenInfo",
      "outputs": [
        {
          "internalType": "uint256",
          "name": "",
          "type": "uint256"
        },
        {
          "internalType": "uint256",
          "name": "",
          "type": "uint256"
        },
        {
          "internalType": "uint64",
          "name": "",
          "type": "uint64"
        },
        {
          "internalType": "uint64",
          "name": "",
          "type": "uint64"
        },
        {
          "internalType": "bool",
          "name": "",
          "type": "bool"
        }
      ],
      "stateMutability": "view",
      "type": "function"
    },
    {
      "inputs": [],
      "name": "getPictureTokenAddress",
      "outputs": [
        {
          "internalType": "address",
          "name": "",
          "type": "address"
        }
      ],
      "stateMutability": "view",
      "type": "function"
    },
    {
      "inputs": [
        {
          "internalType": "uint256",
          "name": "_licenseTokenId",
          "type": "uint256"
        }
      ],
      "name": "getPictureTokenId",
      "outputs": [
        {
          "internalType": "uint256",
          "name": "",
          "type": "uint256"
        }
      ],
      "stateMutability": "view",
      "type": "function"
    },
    {
      "inputs": [
        {
          "internalType": "address",
          "name": "owner",
          "type": "address"
        },
        {
          "internalType": "address",
          "name": "operator",
          "type": "address"
        }
      ],
      "name": "isApprovedForAll",
      "outputs": [
        {
          "internalType": "bool",
          "name": "",
          "type": "bool"
        }
      ],
      "stateMutability": "view",
      "type": "function"
    },
    {
      "inputs": [],
      "name": "name",
      "outputs": [
        {
          "internalType": "string",
          "name": "",
          "type": "string"
        }
      ],
      "stateMutability": "view",
      "type": "function"
    },
    {
      "inputs": [],
      "name": "owner",
      "outputs": [
        {
          "internalType": "address",
          "name": "",
          "type": "address"
        }
      ],
      "stateMutability": "view",
      "type": "function"
    },
    {
      "inputs": [
        {
          "internalType": "uint256",
          "name": "tokenId",
          "type": "uint256"
        }
      ],
      "name": "ownerOf",
      "outputs": [
        {
          "internalType": "address",
          "name": "",
          "type": "address"
        }
      ],
      "stateMutability": "view",
      "type": "function"
    },
    {
      "inputs": [],
      "name": "renounceOwnership",
      "outputs": [],
      "stateMutability": "nonpayable",
      "type": "function"
    },
    {
      "inputs": [
        {
          "internalType": "address",
          "name": "_to",
          "type": "address"
        },
        {
          "internalType": "uint256",
          "name": "_pictureTokenId",
          "type": "uint256"
        },
        {
          "internalType": "uint256",
          "name": "_licenseTokenId",
          "type": "uint256"
        },
        {
          "internalType": "uint64",
          "name": "_startTime",
          "type": "uint64"
        },
        {
          "internalType": "uint64",
          "name": "_endTime",
          "type": "uint64"
        },
        {
          "internalType": "uint256",
          "name": "_quantity",
          "type": "uint256"
        },
        {
          "internalType": "string",
          "name": "tokenUri",
          "type": "string"
        }
      ],
      "name": "safeMint",
      "outputs": [],
      "stateMutability": "nonpayable",
      "type": "function"
    },
    {
      "inputs": [
        {
          "internalType": "address",
          "name": "from",
          "type": "address"
        },
        {
          "internalType": "address",
          "name": "to",
          "type": "address"
        },
        {
          "internalType": "uint256",
          "name": "tokenId",
          "type": "uint256"
        }
      ],
      "name": "safeTransferFrom",
      "outputs": [],
      "stateMutability": "nonpayable",
      "type": "function"
    },
    {
      "inputs": [
        {
          "internalType": "address",
          "name": "from",
          "type": "address"
        },
        {
          "internalType": "address",
          "name": "to",
          "type": "address"
        },
        {
          "internalType": "uint256",
          "name": "tokenId",
          "type": "uint256"
        },
        {
          "internalType": "bytes",
          "name": "_data",
          "type": "bytes"
        }
      ],
      "name": "safeTransferFrom",
      "outputs": [],
      "stateMutability": "nonpayable",
      "type": "function"
    },
    {
      "inputs": [
        {
          "internalType": "address",
          "name": "operator",
          "type": "address"
        },
        {
          "internalType": "bool",
          "name": "approved",
          "type": "bool"
        }
      ],
      "name": "setApprovalForAll",
      "outputs": [],
      "stateMutability": "nonpayable",
      "type": "function"
    },
    {
      "inputs": [
        {
          "internalType": "address",
          "name": "_addr",
          "type": "address"
        }
      ],
      "name": "setPictureTokenAddress",
      "outputs": [],
      "stateMutability": "nonpayable",
      "type": "function"
    },
    {
      "inputs": [
        {
          "internalType": "bytes4",
          "name": "interfaceId",
          "type": "bytes4"
        }
      ],
      "name": "supportsInterface",
      "outputs": [
        {
          "internalType": "bool",
          "name": "",
          "type": "bool"
        }
      ],
      "stateMutability": "view",
      "type": "function"
    },
    {
      "inputs": [],
      "name": "symbol",
      "outputs": [
        {
          "internalType": "string",
          "name": "",
          "type": "string"
        }
      ],
      "stateMutability": "view",
      "type": "function"
    },
    {
      "inputs": [
        {
          "internalType": "uint256",
          "name": "index",
          "type": "uint256"
        }
      ],
      "name": "tokenByIndex",
      "outputs": [
        {
          "internalType": "uint256",
          "name": "",
          "type": "uint256"
        }
      ],
      "stateMutability": "view",
      "type": "function"
    },
    {
      "inputs": [
        {
          "internalType": "address",
          "name": "owner",
          "type": "address"
        },
        {
          "internalType": "uint256",
          "name": "index",
          "type": "uint256"
        }
      ],
      "name": "tokenOfOwnerByIndex",
      "outputs": [
        {
          "internalType": "uint256",
          "name": "",
          "type": "uint256"
        }
      ],
      "stateMutability": "view",
      "type": "function"
    },
    {
      "inputs": [
        {
          "internalType": "uint256",
          "name": "tokenId",
          "type": "uint256"
        }
      ],
      "name": "tokenURI",
      "outputs": [
        {
          "internalType": "string",
          "name": "",
          "type": "string"
        }
      ],
      "stateMutability": "view",
      "type": "function"
    },
    {
      "inputs": [],
      "name": "totalSupply",
      "outputs": [
        {
          "internalType": "uint256",
          "name": "",
          "type": "uint256"
        }
      ],
      "stateMutability": "view",
      "type": "function"
    },
    {
      "inputs": [
        {
          "internalType": "address",
          "name": "from",
          "type": "address"
        },
        {
          "internalType": "address",
          "name": "to",
          "type": "address"
        },
        {
          "internalType": "uint256",
          "name": "tokenId",
          "type": "uint256"
        }
      ],
      "name": "transferFrom",
      "outputs": [],
      "stateMutability": "nonpayable",
      "type": "function"
    },
    {
      "inputs": [
        {
          "internalType": "address",
          "name": "newOwner",
          "type": "address"
        }
      ],
      "name": "transferOwnership",
      "outputs": [],
      "stateMutability": "nonpayable",
      "type": "function"
    }
  ],
  "bytecode": "0x60806040523480156200001157600080fd5b50604051620025f0380380620025f0833981016040819052620000349162000297565b604080518082018252600c81526b2634b1b2b739b2aa37b5b2b760a11b6020808301918252835180850190945260038452624c494360e81b9084015281519192916200008391600091620001f1565b50805162000099906001906020840190620001f1565b5050506000620000ae6200010e60201b60201c565b600a80546001600160a01b0319166001600160a01b038316908117909155604051919250906000907f8be0079c531659141344cd1fd0a4f28419497f9722a3daafe3b4186f6b6457e0908290a350620001078162000112565b5062000377565b3390565b6200011c6200010e565b6001600160a01b03166200012f620001e2565b6001600160a01b031614620001615760405162461bcd60e51b81526004016200015890620002db565b60405180910390fd5b6001600160a01b0381166200018a5760405162461bcd60e51b8152600401620001589062000310565b600b80546001600160a01b0319166001600160a01b0383161790556040517f76c35f132a779aefe116b8d165bc36c7e230c7144d2fb3dde214ac8ef930cb7b90620001d7908390620002c7565b60405180910390a150565b600a546001600160a01b031690565b828054620001ff906200033a565b90600052602060002090601f0160209004810192826200022357600085556200026e565b82601f106200023e57805160ff19168380011785556200026e565b828001600101855582156200026e579182015b828111156200026e57825182559160200191906001019062000251565b506200027c92915062000280565b5090565b5b808211156200027c576000815560010162000281565b600060208284031215620002a9578081fd5b81516001600160a01b0381168114620002c0578182fd5b9392505050565b6001600160a01b0391909116815260200190565b6020808252818101527f4f776e61626c653a2063616c6c6572206973206e6f7420746865206f776e6572604082015260600190565b60208082526010908201526f6164647265737320697320656d70747960801b604082015260600190565b6002810460018216806200034f57607f821691505b602082108114156200037157634e487b7160e01b600052602260045260246000fd5b50919050565b61226980620003876000396000f3fe608060405234801561001057600080fd5b50600436106101a35760003560e01c806370a08231116100ee57806395d89b4111610097578063c87b56dd11610071578063c87b56dd14610345578063da58ff0e14610358578063e985e9c51461036b578063f2fde38b1461037e576101a3565b806395d89b4114610317578063a22cb4651461031f578063b88d4fde14610332576101a3565b806388013d69116100c857806388013d69146102f45780638aae552c146102fc5780638da5cb5b1461030f576101a3565b806370a08231146102b5578063715018a6146102c8578063722a395c146102d0576101a3565b80632f745c59116101505780634f6ccce71161012a5780634f6ccce71461027c57806357c9076f1461028f5780636352211e146102a2576101a3565b80632f745c591461024357806342526e4e1461025657806342842e0e14610269576101a3565b8063095ea7b311610181578063095ea7b31461020657806318160ddd1461021b57806323b872dd14610230576101a3565b806301ffc9a7146101a857806306fdde03146101d1578063081812fc146101e6575b600080fd5b6101bb6101b63660046118ea565b610391565b6040516101c89190611af4565b60405180910390f35b6101d96103be565b6040516101c89190611aff565b6101f96101f4366004611955565b610450565b6040516101c89190611a64565b610219610214366004611824565b61049c565b005b610223610534565b6040516101c8919061213d565b61021961023e366004611749565b61053a565b610223610251366004611824565b610572565b6101f9610264366004611922565b6105c4565b610219610277366004611749565b6105cb565b61022361028a366004611955565b6105f1565b61021961029d3660046116fd565b61064c565b6101f96102b0366004611955565b610707565b6102236102c33660046116fd565b61073c565b610219610780565b6102e36102de366004611955565b610809565b6040516101c8959493929190612146565b6101f9610888565b61021961030a36600461184d565b610897565b6101f9610a1e565b6101d9610a2d565b61021961032d3660046117ea565b610a3c565b610219610340366004611784565b610b0a565b6101d9610353366004611955565b610b49565b610223610366366004611955565b610baa565b6101bb610379366004611717565b610bbc565b61021961038c3660046116fd565b610bea565b60006001600160e01b0319821663780e9d6360e01b14806103b657506103b682610cab565b90505b919050565b6060600080546103cd906121dc565b80601f01602080910402602001604051908101604052809291908181526020018280546103f9906121dc565b80156104465780601f1061041b57610100808354040283529160200191610446565b820191906000526020600020905b81548152906001019060200180831161042957829003601f168201915b5050505050905090565b600061045b82610ceb565b6104805760405162461bcd60e51b815260040161047790611ed0565b60405180910390fd5b506000908152600460205260409020546001600160a01b031690565b60006104a782610707565b9050806001600160a01b0316836001600160a01b031614156104db5760405162461bcd60e51b81526004016104779061200b565b806001600160a01b03166104ed610d08565b6001600160a01b03161480610509575061050981610379610d08565b6105255760405162461bcd60e51b815260040161047790611d84565b61052f8383610d0c565b505050565b60085490565b61054b610545610d08565b82610d7a565b6105675760405162461bcd60e51b81526004016104779061204c565b61052f838383610dff565b600061057d8361073c565b821061059b5760405162461bcd60e51b815260040161047790611b12565b506001600160a01b03919091166000908152600660209081526040808320938352929052205490565b6020015190565b6105d6838383610f2c565b61052f83838360405180602001604052806000815250610b0a565b60006105fb610534565b82106106195760405162461bcd60e51b8152600401610477906120a9565b6008828154811061063a57634e487b7160e01b600052603260045260246000fd5b90600052602060002001549050919050565b610654610d08565b6001600160a01b0316610665610a1e565b6001600160a01b03161461068b5760405162461bcd60e51b815260040161047790611f1c565b6001600160a01b0381166106b15760405162461bcd60e51b815260040161047790612106565b600b80546001600160a01b0319166001600160a01b0383161790556040517f76c35f132a779aefe116b8d165bc36c7e230c7144d2fb3dde214ac8ef930cb7b906106fc908390611a64565b60405180910390a150565b6000818152600260205260408120546001600160a01b0316806103b65760405162461bcd60e51b815260040161047790611e3e565b60006001600160a01b0382166107645760405162461bcd60e51b815260040161047790611de1565b506001600160a01b031660009081526003602052604090205490565b610788610d08565b6001600160a01b0316610799610a1e565b6001600160a01b0316146107bf5760405162461bcd60e51b815260040161047790611f1c565b600a546040516000916001600160a01b0316907f8be0079c531659141344cd1fd0a4f28419497f9722a3daafe3b4186f6b6457e0908390a3600a80546001600160a01b0319169055565b6000908152600c6020908152604091829020825160a0810184528154808252600183015493820184905260029092015467ffffffffffffffff808216958301869052680100000000000000008204166060830181905270010000000000000000000000000000000090910460ff16151560809092018290529194929392565b600b546001600160a01b031690565b868660006108a482610fb5565b9050826001600160a01b0316816001600160a01b0316146108d75760405162461bcd60e51b815260040161047790611cdb565b6108e18a89611075565b6108eb8885611093565b6040518060a001604052808a81526020018681526020018867ffffffffffffffff1681526020018767ffffffffffffffff16815260200160011515815250600c60008a8152602001908152602001600020600082015181600001556020820151816001015560408201518160020160006101000a81548167ffffffffffffffff021916908367ffffffffffffffff16021790555060608201518160020160086101000a81548167ffffffffffffffff021916908367ffffffffffffffff16021790555060808201518160020160106101000a81548160ff0219169083151502179055509050507f6ffbc7fd3a3f5d8a7bda2a3cdd44ba14250b18b1869791eecf1e57bd87bfd7ae8a8a8a8a8a8a604051610a0a96959493929190611ab4565b60405180910390a150505050505050505050565b600a546001600160a01b031690565b6060600180546103cd906121dc565b610a44610d08565b6001600160a01b0316826001600160a01b03161415610a755760405162461bcd60e51b815260040161047790611ca4565b8060056000610a82610d08565b6001600160a01b03908116825260208083019390935260409182016000908120918716808252919093529120805460ff191692151592909217909155610ac6610d08565b6001600160a01b03167f17307eab39ab6107e8899845ad3d59bd9653f200f220920489ca2b5937696c3183604051610afe9190611af4565b60405180910390a35050565b610b1b610b15610d08565b83610d7a565b610b375760405162461bcd60e51b81526004016104779061204c565b610b43848484846110b2565b50505050565b6060610b5482610ceb565b610b705760405162461bcd60e51b815260040161047790611fae565b6000610b7a6110e5565b90506000815111610b9a5760405180602001604052806000815250610ba3565b610ba38361111c565b9392505050565b6000908152600c602052604090205490565b6001600160a01b03918216600090815260056020908152604080832093909416825291909152205460ff1690565b610bf2610d08565b6001600160a01b0316610c03610a1e565b6001600160a01b031614610c295760405162461bcd60e51b815260040161047790611f1c565b6001600160a01b038116610c4f5760405162461bcd60e51b815260040161047790611bcc565b600a546040516001600160a01b038084169216907f8be0079c531659141344cd1fd0a4f28419497f9722a3daafe3b4186f6b6457e090600090a3600a80546001600160a01b0319166001600160a01b0392909216919091179055565b60006001600160e01b031982166380ac58cd60e01b1480610cdc57506001600160e01b03198216635b5e139f60e01b145b806103b657506103b68261115c565b6000908152600260205260409020546001600160a01b0316151590565b3390565b600081815260046020526040902080546001600160a01b0319166001600160a01b0384169081179091558190610d4182610707565b6001600160a01b03167f8c5be1e5ebec7d5bd14f71427d1e84f3dd0314c0f7b2291e5b200ac8c7c3b92560405160405180910390a45050565b6000610d8582610ceb565b610da15760405162461bcd60e51b815260040161047790611d38565b6000610dac83610707565b9050806001600160a01b0316846001600160a01b03161480610de75750836001600160a01b0316610ddc84610450565b6001600160a01b0316145b80610df75750610df78185610bbc565b949350505050565b826001600160a01b0316610e1282610707565b6001600160a01b031614610e385760405162461bcd60e51b815260040161047790611f51565b6001600160a01b038216610e5e5760405162461bcd60e51b815260040161047790611c60565b610e69838383610f2c565b610e74600082610d0c565b6001600160a01b0383166000908152600360205260408120805460019290610e9d908490612199565b90915550506001600160a01b0382166000908152600360205260408120805460019290610ecb908490612181565b909155505060008181526002602052604080822080546001600160a01b0319166001600160a01b0386811691821790925591518493918716917fddf252ad1be2c89b69c2b068fc378daa952ba7f163c4a11628f55a4df523b3ef91a4505050565b610f3783838361052f565b6001600160a01b038316610f5357610f4e81611175565b610f76565b816001600160a01b0316836001600160a01b031614610f7657610f7683826111b9565b6001600160a01b038216610f9257610f8d81611256565b61052f565b826001600160a01b0316826001600160a01b03161461052f5761052f828261132f565b600b5460405160009182916001600160a01b0390911690610fda90859060240161213d565b60408051601f198184030181529181526020820180517bffffffffffffffffffffffffffffffffffffffffffffffffffffffff166331a9108f60e11b179052516110249190611999565b6000604051808303816000865af19150503d8060008114611061576040519150601f19603f3d011682016040523d82523d6000602084013e611066565b606091505b509150506000610df7826105c4565b61108f828260405180602001604052806000815250611373565b5050565b6000828152600d60209081526040909120825161052f928401906115a6565b6110bd848484610dff565b6110c9848484846113a6565b610b435760405162461bcd60e51b815260040161047790611b6f565b60408051808201909152600781527f697066733a2f2f00000000000000000000000000000000000000000000000000602082015290565b60606111266110e5565b6000838152600d60209081526040918290209151611146939291016119b5565b6040516020818303038152906040529050919050565b6001600160e01b031981166301ffc9a760e01b14919050565b600880546000838152600960205260408120829055600182018355919091527ff3f7a9fe364faab93b216da50a3214154f22a0a2b415b23a84c8169e8b636ee30155565b600060016111c68461073c565b6111d09190612199565b600083815260076020526040902054909150808214611223576001600160a01b03841660009081526006602090815260408083208584528252808320548484528184208190558352600790915290208190555b5060009182526007602090815260408084208490556001600160a01b039094168352600681528383209183525290812055565b60085460009061126890600190612199565b6000838152600960205260408120546008805493945090928490811061129e57634e487b7160e01b600052603260045260246000fd5b9060005260206000200154905080600883815481106112cd57634e487b7160e01b600052603260045260246000fd5b600091825260208083209091019290925582815260099091526040808220849055858252812055600880548061131357634e487b7160e01b600052603160045260246000fd5b6001900381819060005260206000200160009055905550505050565b600061133a8361073c565b6001600160a01b039093166000908152600660209081526040808320868452825280832085905593825260079052919091209190915550565b61137d83836114c1565b61138a60008484846113a6565b61052f5760405162461bcd60e51b815260040161047790611b6f565b60006113ba846001600160a01b03166115a0565b156114b657836001600160a01b031663150b7a026113d6610d08565b8786866040518563ffffffff1660e01b81526004016113f89493929190611a78565b602060405180830381600087803b15801561141257600080fd5b505af1925050508015611442575060408051601f3d908101601f1916820190925261143f91810190611906565b60015b61149c573d808015611470576040519150601f19603f3d011682016040523d82523d6000602084013e611475565b606091505b5080516114945760405162461bcd60e51b815260040161047790611b6f565b805181602001fd5b6001600160e01b031916630a85bd0160e11b149050610df7565b506001949350505050565b6001600160a01b0382166114e75760405162461bcd60e51b815260040161047790611e9b565b6114f081610ceb565b1561150d5760405162461bcd60e51b815260040161047790611c29565b61151960008383610f2c565b6001600160a01b0382166000908152600360205260408120805460019290611542908490612181565b909155505060008181526002602052604080822080546001600160a01b0319166001600160a01b03861690811790915590518392907fddf252ad1be2c89b69c2b068fc378daa952ba7f163c4a11628f55a4df523b3ef908290a45050565b3b151590565b8280546115b2906121dc565b90600052602060002090601f0160209004810192826115d4576000855561161a565b82601f106115ed57805160ff191683800117855561161a565b8280016001018555821561161a579182015b8281111561161a5782518255916020019190600101906115ff565b5061162692915061162a565b5090565b5b80821115611626576000815560010161162b565b600067ffffffffffffffff8084111561165a5761165a61222d565b604051601f8501601f19168101602001828111828210171561167e5761167e61222d565b60405284815291508183850186101561169657600080fd5b8484602083013760006020868301015250509392505050565b80356001600160a01b03811681146103b957600080fd5b600082601f8301126116d6578081fd5b610ba38383356020850161163f565b803567ffffffffffffffff811681146103b957600080fd5b60006020828403121561170e578081fd5b610ba3826116af565b60008060408385031215611729578081fd5b611732836116af565b9150611740602084016116af565b90509250929050565b60008060006060848603121561175d578081fd5b611766846116af565b9250611774602085016116af565b9150604084013590509250925092565b60008060008060808587031215611799578081fd5b6117a2856116af565b93506117b0602086016116af565b925060408501359150606085013567ffffffffffffffff8111156117d2578182fd5b6117de878288016116c6565b91505092959194509250565b600080604083850312156117fc578182fd5b611805836116af565b915060208301358015158114611819578182fd5b809150509250929050565b60008060408385031215611836578182fd5b61183f836116af565b946020939093013593505050565b600080600080600080600060e0888a031215611867578283fd5b611870886116af565b9650602088013595506040880135945061188c606089016116e5565b935061189a608089016116e5565b925060a0880135915060c088013567ffffffffffffffff8111156118bc578182fd5b8801601f81018a136118cc578182fd5b6118db8a82356020840161163f565b91505092959891949750929550565b6000602082840312156118fb578081fd5b8135610ba381612243565b600060208284031215611917578081fd5b8151610ba381612243565b600060208284031215611933578081fd5b813567ffffffffffffffff811115611949578182fd5b610df7848285016116c6565b600060208284031215611966578081fd5b5035919050565b600081518084526119858160208601602086016121b0565b601f01601f19169290920160200192915050565b600082516119ab8184602087016121b0565b9190910192915050565b6000835160206119c882858389016121b0565b8454918401918390600281046001808316806119e557607f831692505b858310811415611a0357634e487b7160e01b88526022600452602488fd5b808015611a175760018114611a2857611a54565b60ff19851688528388019550611a54565b611a318b612175565b895b85811015611a4c5781548a820152908401908801611a33565b505083880195505b50939a9950505050505050505050565b6001600160a01b0391909116815260200190565b60006001600160a01b03808716835280861660208401525083604083015260806060830152611aaa608083018461196d565b9695505050505050565b6001600160a01b039690961686526020860194909452604085019290925267ffffffffffffffff908116606085015216608083015260a082015260c00190565b901515815260200190565b600060208252610ba3602083018461196d565b6020808252602b908201527f455243373231456e756d657261626c653a206f776e657220696e646578206f7560408201527f74206f6620626f756e6473000000000000000000000000000000000000000000606082015260800190565b60208082526032908201527f4552433732313a207472616e7366657220746f206e6f6e20455243373231526560408201527f63656976657220696d706c656d656e7465720000000000000000000000000000606082015260800190565b60208082526026908201527f4f776e61626c653a206e6577206f776e657220697320746865207a65726f206160408201527f6464726573730000000000000000000000000000000000000000000000000000606082015260800190565b6020808252601c908201527f4552433732313a20746f6b656e20616c7265616479206d696e74656400000000604082015260600190565b60208082526024908201527f4552433732313a207472616e7366657220746f20746865207a65726f206164646040820152637265737360e01b606082015260800190565b60208082526019908201527f4552433732313a20617070726f766520746f2063616c6c657200000000000000604082015260600190565b60208082526025908201527f546f6b656e206f776e6572206d757374206265207468652073616d652061646460408201527f726573732e000000000000000000000000000000000000000000000000000000606082015260800190565b6020808252602c908201527f4552433732313a206f70657261746f7220717565727920666f72206e6f6e657860408201526b34b9ba32b73a103a37b5b2b760a11b606082015260800190565b60208082526038908201527f4552433732313a20617070726f76652063616c6c6572206973206e6f74206f7760408201527f6e6572206e6f7220617070726f76656420666f7220616c6c0000000000000000606082015260800190565b6020808252602a908201527f4552433732313a2062616c616e636520717565727920666f7220746865207a6560408201527f726f206164647265737300000000000000000000000000000000000000000000606082015260800190565b60208082526029908201527f4552433732313a206f776e657220717565727920666f72206e6f6e657869737460408201527f656e7420746f6b656e0000000000000000000000000000000000000000000000606082015260800190565b6020808252818101527f4552433732313a206d696e7420746f20746865207a65726f2061646472657373604082015260600190565b6020808252602c908201527f4552433732313a20617070726f76656420717565727920666f72206e6f6e657860408201526b34b9ba32b73a103a37b5b2b760a11b606082015260800190565b6020808252818101527f4f776e61626c653a2063616c6c6572206973206e6f7420746865206f776e6572604082015260600190565b60208082526029908201527f4552433732313a207472616e73666572206f6620746f6b656e2074686174206960408201527f73206e6f74206f776e0000000000000000000000000000000000000000000000606082015260800190565b6020808252602f908201527f4552433732314d657461646174613a2055524920717565727920666f72206e6f60408201527f6e6578697374656e7420746f6b656e0000000000000000000000000000000000606082015260800190565b60208082526021908201527f4552433732313a20617070726f76616c20746f2063757272656e74206f776e656040820152603960f91b606082015260800190565b60208082526031908201527f4552433732313a207472616e736665722063616c6c6572206973206e6f74206f60408201527f776e6572206e6f7220617070726f766564000000000000000000000000000000606082015260800190565b6020808252602c908201527f455243373231456e756d657261626c653a20676c6f62616c20696e646578206f60408201527f7574206f6620626f756e64730000000000000000000000000000000000000000606082015260800190565b60208082526010908201527f6164647265737320697320656d70747900000000000000000000000000000000604082015260600190565b90815260200190565b948552602085019390935267ffffffffffffffff91821660408501521660608301521515608082015260a00190565b60009081526020902090565b6000821982111561219457612194612217565b500190565b6000828210156121ab576121ab612217565b500390565b60005b838110156121cb5781810151838201526020016121b3565b83811115610b435750506000910152565b6002810460018216806121f057607f821691505b6020821081141561221157634e487b7160e01b600052602260045260246000fd5b50919050565b634e487b7160e01b600052601160045260246000fd5b634e487b7160e01b600052604160045260246000fd5b6001600160e01b03198116811461225957600080fd5b5056fea164736f6c6343000800000a",
  "linkReferences": {},
  "deployedLinkReferences": {}
}