{
  "_format": "hh-sol-artifact-1",
  "contractName": "PictureToken",
  "sourceName": "contracts/PictureToken.sol",
  "abi": [
    {
      "inputs": [],
      "stateMutability": "nonpayable",
      "type": "constructor"
    },
    {
      "anonymous": false,
      "inputs": [
        {
          "indexed": true,
          "internalType": "address",
          "name": "owner",
          "type": "address"
        },
        {
          "indexed": true,
          "internalType": "address",
          "name": "approved",
          "type": "address"
        },
        {
          "indexed": true,
          "internalType": "uint256",
          "name": "tokenId",
          "type": "uint256"
        }
      ],
      "name": "Approval",
      "type": "event"
    },
    {
      "anonymous": false,
      "inputs": [
        {
          "indexed": true,
          "internalType": "address",
          "name": "owner",
          "type": "address"
        },
        {
          "indexed": true,
          "internalType": "address",
          "name": "operator",
          "type": "address"
        },
        {
          "indexed": false,
          "internalType": "bool",
          "name": "approved",
          "type": "bool"
        }
      ],
      "name": "ApprovalForAll",
      "type": "event"
    },
    {
      "anonymous": false,
      "inputs": [
        {
          "indexed": true,
          "internalType": "address",
          "name": "from",
          "type": "address"
        },
        {
          "indexed": true,
          "internalType": "address",
          "name": "to",
          "type": "address"
        },
        {
          "indexed": true,
          "internalType": "uint256",
          "name": "tokenId",
          "type": "uint256"
        }
      ],
      "name": "Transfer",
      "type": "event"
    },
    {
      "inputs": [
        {
          "internalType": "address",
          "name": "to",
          "type": "address"
        },
        {
          "internalType": "uint256",
          "name": "tokenId",
          "type": "uint256"
        }
      ],
      "name": "approve",
      "outputs": [],
      "stateMutability": "nonpayable",
      "type": "function"
    },
    {
      "inputs": [
        {
          "internalType": "address",
          "name": "owner",
          "type": "address"
        }
      ],
      "name": "balanceOf",
      "outputs": [
        {
          "internalType": "uint256",
          "name": "",
          "type": "uint256"
        }
      ],
      "stateMutability": "view",
      "type": "function"
    },
    {
      "inputs": [
        {
          "internalType": "uint256",
          "name": "tokenId",
          "type": "uint256"
        }
      ],
      "name": "getApproved",
      "outputs": [
        {
          "internalType": "address",
          "name": "",
          "type": "address"
        }
      ],
      "stateMutability": "view",
      "type": "function"
    },
    {
      "inputs": [
        {
          "internalType": "address",
          "name": "owner",
          "type": "address"
        },
        {
          "internalType": "address",
          "name": "operator",
          "type": "address"
        }
      ],
      "name": "isApprovedForAll",
      "outputs": [
        {
          "internalType": "bool",
          "name": "",
          "type": "bool"
        }
      ],
      "stateMutability": "view",
      "type": "function"
    },
    {
      "inputs": [],
      "name": "name",
      "outputs": [
        {
          "internalType": "string",
          "name": "",
          "type": "string"
        }
      ],
      "stateMutability": "view",
      "type": "function"
    },
    {
      "inputs": [
        {
          "internalType": "uint256",
          "name": "tokenId",
          "type": "uint256"
        }
      ],
      "name": "ownerOf",
      "outputs": [
        {
          "internalType": "address",
          "name": "",
          "type": "address"
        }
      ],
      "stateMutability": "view",
      "type": "function"
    },
    {
      "inputs": [
        {
          "internalType": "address",
          "name": "to",
          "type": "address"
        },
        {
          "internalType": "uint256",
          "name": "tokenId",
          "type": "uint256"
        },
        {
          "internalType": "string",
          "name": "tokenUri",
          "type": "string"
        }
      ],
      "name": "safeMint",
      "outputs": [],
      "stateMutability": "nonpayable",
      "type": "function"
    },
    {
      "inputs": [
        {
          "internalType": "address",
          "name": "from",
          "type": "address"
        },
        {
          "internalType": "address",
          "name": "to",
          "type": "address"
        },
        {
          "internalType": "uint256",
          "name": "tokenId",
          "type": "uint256"
        }
      ],
      "name": "safeTransferFrom",
      "outputs": [],
      "stateMutability": "nonpayable",
      "type": "function"
    },
    {
      "inputs": [
        {
          "internalType": "address",
          "name": "from",
          "type": "address"
        },
        {
          "internalType": "address",
          "name": "to",
          "type": "address"
        },
        {
          "internalType": "uint256",
          "name": "tokenId",
          "type": "uint256"
        },
        {
          "internalType": "bytes",
          "name": "_data",
          "type": "bytes"
        }
      ],
      "name": "safeTransferFrom",
      "outputs": [],
      "stateMutability": "nonpayable",
      "type": "function"
    },
    {
      "inputs": [
        {
          "internalType": "address",
          "name": "operator",
          "type": "address"
        },
        {
          "internalType": "bool",
          "name": "approved",
          "type": "bool"
        }
      ],
      "name": "setApprovalForAll",
      "outputs": [],
      "stateMutability": "nonpayable",
      "type": "function"
    },
    {
      "inputs": [
        {
          "internalType": "bytes4",
          "name": "interfaceId",
          "type": "bytes4"
        }
      ],
      "name": "supportsInterface",
      "outputs": [
        {
          "internalType": "bool",
          "name": "",
          "type": "bool"
        }
      ],
      "stateMutability": "view",
      "type": "function"
    },
    {
      "inputs": [],
      "name": "symbol",
      "outputs": [
        {
          "internalType": "string",
          "name": "",
          "type": "string"
        }
      ],
      "stateMutability": "view",
      "type": "function"
    },
    {
      "inputs": [
        {
          "internalType": "uint256",
          "name": "index",
          "type": "uint256"
        }
      ],
      "name": "tokenByIndex",
      "outputs": [
        {
          "internalType": "uint256",
          "name": "",
          "type": "uint256"
        }
      ],
      "stateMutability": "view",
      "type": "function"
    },
    {
      "inputs": [
        {
          "internalType": "address",
          "name": "owner",
          "type": "address"
        },
        {
          "internalType": "uint256",
          "name": "index",
          "type": "uint256"
        }
      ],
      "name": "tokenOfOwnerByIndex",
      "outputs": [
        {
          "internalType": "uint256",
          "name": "",
          "type": "uint256"
        }
      ],
      "stateMutability": "view",
      "type": "function"
    },
    {
      "inputs": [
        {
          "internalType": "uint256",
          "name": "tokenId",
          "type": "uint256"
        }
      ],
      "name": "tokenURI",
      "outputs": [
        {
          "internalType": "string",
          "name": "",
          "type": "string"
        }
      ],
      "stateMutability": "view",
      "type": "function"
    },
    {
      "inputs": [],
      "name": "totalSupply",
      "outputs": [
        {
          "internalType": "uint256",
          "name": "",
          "type": "uint256"
        }
      ],
      "stateMutability": "view",
      "type": "function"
    },
    {
      "inputs": [
        {
          "internalType": "address",
          "name": "from",
          "type": "address"
        },
        {
          "internalType": "address",
          "name": "to",
          "type": "address"
        },
        {
          "internalType": "uint256",
          "name": "tokenId",
          "type": "uint256"
        }
      ],
      "name": "transferFrom",
      "outputs": [],
      "stateMutability": "nonpayable",
      "type": "function"
    }
  ],
  "bytecode": "0x60806040523480156200001157600080fd5b50604080518082018252600c81526b2834b1ba3ab932aa37b5b2b760a11b60208083019182528351808501909452600384526250494360e81b908401528151919291620000619160009162000080565b5080516200007790600190602084019062000080565b50505062000163565b8280546200008e9062000126565b90600052602060002090601f016020900481019282620000b25760008555620000fd565b82601f10620000cd57805160ff1916838001178555620000fd565b82800160010185558215620000fd579182015b82811115620000fd578251825591602001919060010190620000e0565b506200010b9291506200010f565b5090565b5b808211156200010b576000815560010162000110565b6002810460018216806200013b57607f821691505b602082108114156200015d57634e487b7160e01b600052602260045260246000fd5b50919050565b611a6180620001736000396000f3fe608060405234801561001057600080fd5b506004361061011b5760003560e01c80634f6ccce7116100b2578063a22cb46511610081578063c87b56dd11610066578063c87b56dd14610248578063cd279c7c1461025b578063e985e9c51461026e5761011b565b8063a22cb46514610222578063b88d4fde146102355761011b565b80634f6ccce7146101e15780636352211e146101f457806370a082311461020757806395d89b411461021a5761011b565b806318160ddd116100ee57806318160ddd1461019357806323b872dd146101a85780632f745c59146101bb57806342842e0e146101ce5761011b565b806301ffc9a71461012057806306fdde0314610149578063081812fc1461015e578063095ea7b31461017e575b600080fd5b61013361012e3660046112c6565b610281565b6040516101409190611441565b60405180910390f35b6101516102ae565b604051610140919061144c565b61017161016c3660046112fe565b610340565b60405161014091906113f1565b61019161018c366004611235565b61038c565b005b61019b610424565b6040516101409190611964565b6101916101b6366004611147565b61042a565b61019b6101c9366004611235565b610462565b6101916101dc366004611147565b6104b4565b61019b6101ef3660046112fe565b6104da565b6101716102023660046112fe565b610535565b61019b6102153660046110fb565b61056a565b6101516105ae565b6101916102303660046111fb565b6105bd565b610191610243366004611182565b61068b565b6101516102563660046112fe565b6106ca565b61019161026936600461125e565b61072b565b61013361027c366004611115565b61074b565b60006001600160e01b0319821663780e9d6360e01b14806102a657506102a682610779565b90505b919050565b6060600080546102bd906119d4565b80601f01602080910402602001604051908101604052809291908181526020018280546102e9906119d4565b80156103365780601f1061030b57610100808354040283529160200191610336565b820191906000526020600020905b81548152906001019060200180831161031957829003601f168201915b5050505050905090565b600061034b826107b9565b6103705760405162461bcd60e51b815260040161036790611763565b60405180910390fd5b506000908152600460205260409020546001600160a01b031690565b600061039782610535565b9050806001600160a01b0316836001600160a01b031614156103cb5760405162461bcd60e51b815260040161036790611869565b806001600160a01b03166103dd6107d6565b6001600160a01b031614806103f957506103f98161027c6107d6565b6104155760405162461bcd60e51b815260040161036790611617565b61041f83836107da565b505050565b60085490565b61043b6104356107d6565b82610855565b6104575760405162461bcd60e51b8152600401610367906118aa565b61041f8383836108da565b600061046d8361056a565b821061048b5760405162461bcd60e51b81526004016103679061145f565b506001600160a01b03919091166000908152600660209081526040808320938352929052205490565b6104bf838383610a14565b61041f8383836040518060200160405280600081525061068b565b60006104e4610424565b82106105025760405162461bcd60e51b815260040161036790611907565b6008828154811061052357634e487b7160e01b600052603260045260246000fd5b90600052602060002001549050919050565b6000818152600260205260408120546001600160a01b0316806102a65760405162461bcd60e51b8152600401610367906116d1565b60006001600160a01b0382166105925760405162461bcd60e51b815260040161036790611674565b506001600160a01b031660009081526003602052604090205490565b6060600180546102bd906119d4565b6105c56107d6565b6001600160a01b0316826001600160a01b031614156105f65760405162461bcd60e51b815260040161036790611594565b80600560006106036107d6565b6001600160a01b03908116825260208083019390935260409182016000908120918716808252919093529120805460ff1916921515929092179091556106476107d6565b6001600160a01b03167f17307eab39ab6107e8899845ad3d59bd9653f200f220920489ca2b5937696c318360405161067f9190611441565b60405180910390a35050565b61069c6106966107d6565b83610855565b6106b85760405162461bcd60e51b8152600401610367906118aa565b6106c484848484610a9d565b50505050565b60606106d5826107b9565b6106f15760405162461bcd60e51b81526004016103679061180c565b60006106fb610ad0565b9050600081511161071b5760405180602001604052806000815250610724565b61072483610b07565b9392505050565b61073760008484610a14565b6107418383610b47565b61041f8282610b65565b6001600160a01b03918216600090815260056020908152604080832093909416825291909152205460ff1690565b60006001600160e01b031982166380ac58cd60e01b14806107aa57506001600160e01b03198216635b5e139f60e01b145b806102a657506102a682610b84565b6000908152600260205260409020546001600160a01b0316151590565b3390565b6000818152600460205260409020805473ffffffffffffffffffffffffffffffffffffffff19166001600160a01b038416908117909155819061081c82610535565b6001600160a01b03167f8c5be1e5ebec7d5bd14f71427d1e84f3dd0314c0f7b2291e5b200ac8c7c3b92560405160405180910390a45050565b6000610860826107b9565b61087c5760405162461bcd60e51b8152600401610367906115cb565b600061088783610535565b9050806001600160a01b0316846001600160a01b031614806108c25750836001600160a01b03166108b784610340565b6001600160a01b0316145b806108d257506108d2818561074b565b949350505050565b826001600160a01b03166108ed82610535565b6001600160a01b0316146109135760405162461bcd60e51b8152600401610367906117af565b6001600160a01b0382166109395760405162461bcd60e51b815260040161036790611550565b610944838383610a14565b61094f6000826107da565b6001600160a01b0383166000908152600360205260408120805460019290610978908490611991565b90915550506001600160a01b03821660009081526003602052604081208054600192906109a6908490611979565b9091555050600081815260026020526040808220805473ffffffffffffffffffffffffffffffffffffffff19166001600160a01b0386811691821790925591518493918716917fddf252ad1be2c89b69c2b068fc378daa952ba7f163c4a11628f55a4df523b3ef91a4505050565b610a1f83838361041f565b6001600160a01b038316610a3b57610a3681610b9d565b610a5e565b816001600160a01b0316836001600160a01b031614610a5e57610a5e8382610be1565b6001600160a01b038216610a7a57610a7581610c7e565b61041f565b826001600160a01b0316826001600160a01b03161461041f5761041f8282610d57565b610aa88484846108da565b610ab484848484610d9b565b6106c45760405162461bcd60e51b8152600401610367906114bc565b60408051808201909152600781527f697066733a2f2f00000000000000000000000000000000000000000000000000602082015290565b6060610b11610ad0565b6000838152600a60209081526040918290209151610b3193929101611342565b6040516020818303038152906040529050919050565b610b61828260405180602001604052806000815250610eb6565b5050565b6000828152600a60209081526040909120825161041f92840190610fdb565b6001600160e01b031981166301ffc9a760e01b14919050565b600880546000838152600960205260408120829055600182018355919091527ff3f7a9fe364faab93b216da50a3214154f22a0a2b415b23a84c8169e8b636ee30155565b60006001610bee8461056a565b610bf89190611991565b600083815260076020526040902054909150808214610c4b576001600160a01b03841660009081526006602090815260408083208584528252808320548484528184208190558352600790915290208190555b5060009182526007602090815260408084208490556001600160a01b039094168352600681528383209183525290812055565b600854600090610c9090600190611991565b60008381526009602052604081205460088054939450909284908110610cc657634e487b7160e01b600052603260045260246000fd5b906000526020600020015490508060088381548110610cf557634e487b7160e01b600052603260045260246000fd5b6000918252602080832090910192909255828152600990915260408082208490558582528120556008805480610d3b57634e487b7160e01b600052603160045260246000fd5b6001900381819060005260206000200160009055905550505050565b6000610d628361056a565b6001600160a01b039093166000908152600660209081526040808320868452825280832085905593825260079052919091209190915550565b6000610daf846001600160a01b0316610ee9565b15610eab57836001600160a01b031663150b7a02610dcb6107d6565b8786866040518563ffffffff1660e01b8152600401610ded9493929190611405565b602060405180830381600087803b158015610e0757600080fd5b505af1925050508015610e37575060408051601f3d908101601f19168201909252610e34918101906112e2565b60015b610e91573d808015610e65576040519150601f19603f3d011682016040523d82523d6000602084013e610e6a565b606091505b508051610e895760405162461bcd60e51b8152600401610367906114bc565b805181602001fd5b6001600160e01b031916630a85bd0160e11b1490506108d2565b506001949350505050565b610ec08383610eef565b610ecd6000848484610d9b565b61041f5760405162461bcd60e51b8152600401610367906114bc565b3b151590565b6001600160a01b038216610f155760405162461bcd60e51b81526004016103679061172e565b610f1e816107b9565b15610f3b5760405162461bcd60e51b815260040161036790611519565b610f4760008383610a14565b6001600160a01b0382166000908152600360205260408120805460019290610f70908490611979565b9091555050600081815260026020526040808220805473ffffffffffffffffffffffffffffffffffffffff19166001600160a01b03861690811790915590518392907fddf252ad1be2c89b69c2b068fc378daa952ba7f163c4a11628f55a4df523b3ef908290a45050565b828054610fe7906119d4565b90600052602060002090601f016020900481019282611009576000855561104f565b82601f1061102257805160ff191683800117855561104f565b8280016001018555821561104f579182015b8281111561104f578251825591602001919060010190611034565b5061105b92915061105f565b5090565b5b8082111561105b5760008155600101611060565b600067ffffffffffffffff8084111561108f5761108f611a25565b604051601f8501601f1916810160200182811182821017156110b3576110b3611a25565b6040528481529150818385018610156110cb57600080fd5b8484602083013760006020868301015250509392505050565b80356001600160a01b03811681146102a957600080fd5b60006020828403121561110c578081fd5b610724826110e4565b60008060408385031215611127578081fd5b611130836110e4565b915061113e602084016110e4565b90509250929050565b60008060006060848603121561115b578081fd5b611164846110e4565b9250611172602085016110e4565b9150604084013590509250925092565b60008060008060808587031215611197578081fd5b6111a0856110e4565b93506111ae602086016110e4565b925060408501359150606085013567ffffffffffffffff8111156111d0578182fd5b8501601f810187136111e0578182fd5b6111ef87823560208401611074565b91505092959194509250565b6000806040838503121561120d578182fd5b611216836110e4565b91506020830135801515811461122a578182fd5b809150509250929050565b60008060408385031215611247578182fd5b611250836110e4565b946020939093013593505050565b600080600060608486031215611272578283fd5b61127b846110e4565b925060208401359150604084013567ffffffffffffffff81111561129d578182fd5b8401601f810186136112ad578182fd5b6112bc86823560208401611074565b9150509250925092565b6000602082840312156112d7578081fd5b813561072481611a3b565b6000602082840312156112f3578081fd5b815161072481611a3b565b60006020828403121561130f578081fd5b5035919050565b6000815180845261132e8160208601602086016119a8565b601f01601f19169290920160200192915050565b60008351602061135582858389016119a8565b84549184019183906002810460018083168061137257607f831692505b85831081141561139057634e487b7160e01b88526022600452602488fd5b8080156113a457600181146113b5576113e1565b60ff198516885283880195506113e1565b6113be8b61196d565b895b858110156113d95781548a8201529084019088016113c0565b505083880195505b50939a9950505050505050505050565b6001600160a01b0391909116815260200190565b60006001600160a01b038087168352808616602084015250836040830152608060608301526114376080830184611316565b9695505050505050565b901515815260200190565b6000602082526107246020830184611316565b6020808252602b908201527f455243373231456e756d657261626c653a206f776e657220696e646578206f7560408201527f74206f6620626f756e6473000000000000000000000000000000000000000000606082015260800190565b60208082526032908201527f4552433732313a207472616e7366657220746f206e6f6e20455243373231526560408201527f63656976657220696d706c656d656e7465720000000000000000000000000000606082015260800190565b6020808252601c908201527f4552433732313a20746f6b656e20616c7265616479206d696e74656400000000604082015260600190565b60208082526024908201527f4552433732313a207472616e7366657220746f20746865207a65726f206164646040820152637265737360e01b606082015260800190565b60208082526019908201527f4552433732313a20617070726f766520746f2063616c6c657200000000000000604082015260600190565b6020808252602c908201527f4552433732313a206f70657261746f7220717565727920666f72206e6f6e657860408201526b34b9ba32b73a103a37b5b2b760a11b606082015260800190565b60208082526038908201527f4552433732313a20617070726f76652063616c6c6572206973206e6f74206f7760408201527f6e6572206e6f7220617070726f76656420666f7220616c6c0000000000000000606082015260800190565b6020808252602a908201527f4552433732313a2062616c616e636520717565727920666f7220746865207a6560408201527f726f206164647265737300000000000000000000000000000000000000000000606082015260800190565b60208082526029908201527f4552433732313a206f776e657220717565727920666f72206e6f6e657869737460408201527f656e7420746f6b656e0000000000000000000000000000000000000000000000606082015260800190565b6020808252818101527f4552433732313a206d696e7420746f20746865207a65726f2061646472657373604082015260600190565b6020808252602c908201527f4552433732313a20617070726f76656420717565727920666f72206e6f6e657860408201526b34b9ba32b73a103a37b5b2b760a11b606082015260800190565b60208082526029908201527f4552433732313a207472616e73666572206f6620746f6b656e2074686174206960408201527f73206e6f74206f776e0000000000000000000000000000000000000000000000606082015260800190565b6020808252602f908201527f4552433732314d657461646174613a2055524920717565727920666f72206e6f60408201527f6e6578697374656e7420746f6b656e0000000000000000000000000000000000606082015260800190565b60208082526021908201527f4552433732313a20617070726f76616c20746f2063757272656e74206f776e656040820152603960f91b606082015260800190565b60208082526031908201527f4552433732313a207472616e736665722063616c6c6572206973206e6f74206f60408201527f776e6572206e6f7220617070726f766564000000000000000000000000000000606082015260800190565b6020808252602c908201527f455243373231456e756d657261626c653a20676c6f62616c20696e646578206f60408201527f7574206f6620626f756e64730000000000000000000000000000000000000000606082015260800190565b90815260200190565b60009081526020902090565b6000821982111561198c5761198c611a0f565b500190565b6000828210156119a3576119a3611a0f565b500390565b60005b838110156119c35781810151838201526020016119ab565b838111156106c45750506000910152565b6002810460018216806119e857607f821691505b60208210811415611a0957634e487b7160e01b600052602260045260246000fd5b50919050565b634e487b7160e01b600052601160045260246000fd5b634e487b7160e01b600052604160045260246000fd5b6001600160e01b031981168114611a5157600080fd5b5056fea164736f6c6343000800000a",
  "linkReferences": {},
  "deployedLinkReferences": {}
}