{
  "_format": "hh-sol-artifact-1",
  "contractName": "Pinture",
  "sourceName": "contracts/Pinture.sol",
  "abi": [
    {
      "inputs": [
        {
          "internalType": "contract IERC721",
          "name": "licenseToken",
          "type": "address"
        }
      ],
      "stateMutability": "nonpayable",
      "type": "constructor"
    },
    {
      "anonymous": false,
      "inputs": [
        {
          "indexed": false,
          "internalType": "uint256",
          "name": "tokenId",
          "type": "uint256"
        },
        {
          "indexed": false,
          "internalType": "address",
          "name": "buyer",
          "type": "address"
        },
        {
          "indexed": false,
          "internalType": "uint256",
          "name": "price",
          "type": "uint256"
        }
      ],
      "name": "Buy",
      "type": "event"
    },
    {
      "anonymous": false,
      "inputs": [
        {
          "indexed": false,
          "internalType": "uint256",
          "name": "tokenId",
          "type": "uint256"
        }
      ],
      "name": "Cancel",
      "type": "event"
    },
    {
      "anonymous": false,
      "inputs": [
        {
          "indexed": false,
          "internalType": "address",
          "name": "owner",
          "type": "address"
        },
        {
          "indexed": false,
          "internalType": "uint256",
          "name": "tokenId",
          "type": "uint256"
        },
        {
          "indexed": false,
          "internalType": "uint256",
          "name": "price",
          "type": "uint256"
        }
      ],
      "name": "SetPrice",
      "type": "event"
    },
    {
      "inputs": [
        {
          "internalType": "uint256",
          "name": "tokenId",
          "type": "uint256"
        }
      ],
      "name": "buy",
      "outputs": [],
      "stateMutability": "payable",
      "type": "function"
    },
    {
      "inputs": [
        {
          "internalType": "uint256",
          "name": "tokenId",
          "type": "uint256"
        }
      ],
      "name": "cancel",
      "outputs": [],
      "stateMutability": "nonpayable",
      "type": "function"
    },
    {
      "inputs": [],
      "name": "getListedTokens",
      "outputs": [
        {
          "internalType": "uint256[]",
          "name": "",
          "type": "uint256[]"
        }
      ],
      "stateMutability": "view",
      "type": "function"
    },
    {
      "inputs": [
        {
          "internalType": "uint256",
          "name": "tokenId",
          "type": "uint256"
        }
      ],
      "name": "getPrice",
      "outputs": [
        {
          "internalType": "uint256",
          "name": "",
          "type": "uint256"
        }
      ],
      "stateMutability": "view",
      "type": "function"
    },
    {
      "inputs": [
        {
          "internalType": "uint256",
          "name": "tokenId",
          "type": "uint256"
        },
        {
          "internalType": "uint256",
          "name": "price",
          "type": "uint256"
        }
      ],
      "name": "setPrice",
      "outputs": [],
      "stateMutability": "nonpayable",
      "type": "function"
    }
  ],
  "bytecode": "0x608060405234801561001057600080fd5b50604051610d21380380610d2183398101604081905261002f91610054565b600080546001600160a01b0319166001600160a01b0392909216919091179055610082565b600060208284031215610065578081fd5b81516001600160a01b038116811461007b578182fd5b9392505050565b610c90806100916000396000f3fe60806040526004361061005a5760003560e01c8063d96a094a11610043578063d96a094a146100ac578063e7572230146100bf578063f7d97577146100ec5761005a565b80632ba996a51461005f57806340e58ee51461008a575b600080fd5b34801561006b57600080fd5b5061007461010c565b6040516100819190610a20565b60405180910390f35b34801561009657600080fd5b506100aa6100a536600461099f565b610164565b005b6100aa6100ba36600461099f565b6103c7565b3480156100cb57600080fd5b506100df6100da36600461099f565b61067c565b6040516100819190610c38565b3480156100f857600080fd5b506100aa6101073660046109b7565b61068e565b6060600480548060200260200160405190810160405280929190818152602001828054801561015a57602002820191906000526020600020905b815481526020019060010190808311610146575b5050505050905090565b60005460405163020604bf60e21b815282916001600160a01b03169063081812fc90610194908490600401610c38565b60206040518083038186803b1580156101ac57600080fd5b505afa1580156101c0573d6000803e3d6000fd5b505050506040513d601f19601f820116820180604052508101906101e49190610971565b6001600160a01b0316306001600160a01b03161461021d5760405162461bcd60e51b815260040161021490610ade565b60405180910390fd5b6000546040516331a9108f60e11b815283916001600160a01b031690636352211e9061024d908490600401610c38565b60206040518083038186803b15801561026557600080fd5b505afa158015610279573d6000803e3d6000fd5b505050506040513d601f19601f8201168201806040525081019061029d9190610971565b6001600160a01b0316336001600160a01b0316146102cd5760405162461bcd60e51b815260040161021490610b98565b6000546040516331a9108f60e11b815233916001600160a01b031690636352211e906102fd908790600401610c38565b60206040518083038186803b15801561031557600080fd5b505afa158015610329573d6000803e3d6000fd5b505050506040513d601f19601f8201168201806040525081019061034d9190610971565b6001600160a01b0316146103735760405162461bcd60e51b815260040161021490610a9b565b60008381526002602052604081205561038b8361088b565b7f8bf30e7ff26833413be5f69e1d373744864d600b664204b4a2f9844a8eedb9ed836040516103ba9190610c38565b60405180910390a1505050565b60005460405163020604bf60e21b815282916001600160a01b03169063081812fc906103f7908490600401610c38565b60206040518083038186803b15801561040f57600080fd5b505afa158015610423573d6000803e3d6000fd5b505050506040513d601f19601f820116820180604052508101906104479190610971565b6001600160a01b0316306001600160a01b0316146104775760405162461bcd60e51b815260040161021490610ade565b60008281526002602052604090205434146104a45760405162461bcd60e51b815260040161021490610b3b565b600080546040516331a9108f60e11b81526001600160a01b0390911690636352211e906104d5908690600401610c38565b60206040518083038186803b1580156104ed57600080fd5b505afa158015610501573d6000803e3d6000fd5b505050506040513d601f19601f820116820180604052508101906105259190610971565b90506001600160a01b0381163314156105505760405162461bcd60e51b815260040161021490610bf5565b6000816001600160a01b031634604051610569906109d8565b60006040518083038185875af1925050503d80600081146105a6576040519150601f19603f3d011682016040523d82523d6000602084013e6105ab565b606091505b50509050806105cc5760405162461bcd60e51b815260040161021490610a64565b6105d58461088b565b600054604051632142170760e11b81526001600160a01b03909116906342842e0e90610609908590339089906004016109db565b600060405180830381600087803b15801561062357600080fd5b505af1158015610637573d6000803e3d6000fd5b505050507f3b599f6217e39be59216b60e543ce0d4c7d534fe64dd9d962334924e7819894e84333460405161066e93929190610c41565b60405180910390a150505050565b60009081526002602052604090205490565b60005460405163020604bf60e21b815283916001600160a01b03169063081812fc906106be908490600401610c38565b60206040518083038186803b1580156106d657600080fd5b505afa1580156106ea573d6000803e3d6000fd5b505050506040513d601f19601f8201168201806040525081019061070e9190610971565b6001600160a01b0316306001600160a01b03161461073e5760405162461bcd60e51b815260040161021490610ade565b6000546040516331a9108f60e11b815284916001600160a01b031690636352211e9061076e908490600401610c38565b60206040518083038186803b15801561078657600080fd5b505afa15801561079a573d6000803e3d6000fd5b505050506040513d601f19601f820116820180604052508101906107be9190610971565b6001600160a01b0316336001600160a01b0316146107ee5760405162461bcd60e51b815260040161021490610b98565b60008481526002602052604090205461084657600480546000868152600360205260408120829055600182018355919091527f8a35acfbc15ff81a39ae7d344fd709f28e8600b4aa8c65c6b64bfe7fe36bd19b018490555b60008481526002602052604090819020849055517f5c43325359179f4471448fd5c0247053caeec2178ee6378a1a3eb4b2030d31469061066e903390879087906109ff565b60045460009061089d90600190610c60565b600083815260036020526040812054600480549394509092849081106108d357634e487b7160e01b600052603260045260246000fd5b90600052602060002001549050806004838154811061090257634e487b7160e01b600052603260045260246000fd5b60009182526020808320909101929092558281526003808352604080832086905587835260028452808320839055925290812055600480548061095557634e487b7160e01b600052603160045260246000fd5b6001900381819060005260206000200160009055905550505050565b600060208284031215610982578081fd5b81516001600160a01b0381168114610998578182fd5b9392505050565b6000602082840312156109b0578081fd5b5035919050565b600080604083850312156109c9578081fd5b50508035926020909101359150565b90565b6001600160a01b039384168152919092166020820152604081019190915260600190565b6001600160a01b039390931683526020830191909152604082015260600190565b6020808252825182820181905260009190848201906040850190845b81811015610a5857835183529284019291840191600101610a3c565b50909695505050505050565b60208082526014908201527f4661696c656420746f2073656e64204574686572000000000000000000000000604082015260600190565b60208082526023908201527f596f7520617265206e6f7420746865206f776e6572206f662074686520746f6b60408201526232b71760e91b606082015260800190565b60208082526031908201527f5468697320746f6b656e20686176656e2774206265656e20617070726f76656460408201527f20666f722050696e74757265207965742e000000000000000000000000000000606082015260800190565b60208082526029908201527f54686520676976656e206574686572206973206e6f74206d61746368696e672060408201527f7468652070726963650000000000000000000000000000000000000000000000606082015260800190565b60208082526027908201527f596f7520617265206e6f7420746865206f776e6572206f66206c6963656e736560408201527f20746f6b656e2e00000000000000000000000000000000000000000000000000606082015260800190565b60208082526023908201527f596f7520646f6e2774206861766520746f2062757920796f7572206c6963656e60408201526273652160e81b606082015260800190565b90815260200190565b9283526001600160a01b03919091166020830152604082015260600190565b600082821015610c7e57634e487b7160e01b81526011600452602481fd5b50039056fea164736f6c6343000800000a",
  "linkReferences": {},
  "deployedLinkReferences": {}
}