{
  "_format": "hh-sol-artifact-1",
  "contractName": "UsageRightToken",
  "sourceName": "contracts/UsageRightToken.sol",
  "abi": [
    {
      "inputs": [
        {
          "internalType": "address",
          "name": "_photoTokenAddr",
          "type": "address"
        }
      ],
      "stateMutability": "nonpayable",
      "type": "constructor"
    },
    {
      "anonymous": false,
      "inputs": [
        {
          "indexed": true,
          "internalType": "address",
          "name": "owner",
          "type": "address"
        },
        {
          "indexed": true,
          "internalType": "address",
          "name": "approved",
          "type": "address"
        },
        {
          "indexed": true,
          "internalType": "uint256",
          "name": "tokenId",
          "type": "uint256"
        }
      ],
      "name": "Approval",
      "type": "event"
    },
    {
      "anonymous": false,
      "inputs": [
        {
          "indexed": true,
          "internalType": "address",
          "name": "owner",
          "type": "address"
        },
        {
          "indexed": true,
          "internalType": "address",
          "name": "operator",
          "type": "address"
        },
        {
          "indexed": false,
          "internalType": "bool",
          "name": "approved",
          "type": "bool"
        }
      ],
      "name": "ApprovalForAll",
      "type": "event"
    },
    {
      "anonymous": false,
      "inputs": [
        {
          "indexed": false,
          "internalType": "address",
          "name": "",
          "type": "address"
        },
        {
          "indexed": false,
          "internalType": "uint256",
          "name": "",
          "type": "uint256"
        },
        {
          "indexed": false,
          "internalType": "uint256",
          "name": "",
          "type": "uint256"
        },
        {
          "indexed": false,
          "internalType": "uint64",
          "name": "",
          "type": "uint64"
        },
        {
          "indexed": false,
          "internalType": "uint64",
          "name": "",
          "type": "uint64"
        },
        {
          "indexed": false,
          "internalType": "uint256",
          "name": "",
          "type": "uint256"
        }
      ],
      "name": "Mint",
      "type": "event"
    },
    {
      "anonymous": false,
      "inputs": [
        {
          "indexed": true,
          "internalType": "address",
          "name": "previousOwner",
          "type": "address"
        },
        {
          "indexed": true,
          "internalType": "address",
          "name": "newOwner",
          "type": "address"
        }
      ],
      "name": "OwnershipTransferred",
      "type": "event"
    },
    {
      "anonymous": false,
      "inputs": [
        {
          "indexed": false,
          "internalType": "address",
          "name": "_photoTokenAddr",
          "type": "address"
        }
      ],
      "name": "SetPhotoTokenAddress",
      "type": "event"
    },
    {
      "anonymous": false,
      "inputs": [
        {
          "indexed": true,
          "internalType": "address",
          "name": "from",
          "type": "address"
        },
        {
          "indexed": true,
          "internalType": "address",
          "name": "to",
          "type": "address"
        },
        {
          "indexed": true,
          "internalType": "uint256",
          "name": "tokenId",
          "type": "uint256"
        }
      ],
      "name": "Transfer",
      "type": "event"
    },
    {
      "inputs": [
        {
          "internalType": "address",
          "name": "to",
          "type": "address"
        },
        {
          "internalType": "uint256",
          "name": "tokenId",
          "type": "uint256"
        }
      ],
      "name": "approve",
      "outputs": [],
      "stateMutability": "nonpayable",
      "type": "function"
    },
    {
      "inputs": [
        {
          "internalType": "address",
          "name": "owner",
          "type": "address"
        }
      ],
      "name": "balanceOf",
      "outputs": [
        {
          "internalType": "uint256",
          "name": "",
          "type": "uint256"
        }
      ],
      "stateMutability": "view",
      "type": "function"
    },
    {
      "inputs": [
        {
          "internalType": "bytes",
          "name": "bys",
          "type": "bytes"
        }
      ],
      "name": "bytesToAddress",
      "outputs": [
        {
          "internalType": "address",
          "name": "addr",
          "type": "address"
        }
      ],
      "stateMutability": "pure",
      "type": "function"
    },
    {
      "inputs": [
        {
          "internalType": "uint256",
          "name": "tokenId",
          "type": "uint256"
        }
      ],
      "name": "getApproved",
      "outputs": [
        {
          "internalType": "address",
          "name": "",
          "type": "address"
        }
      ],
      "stateMutability": "view",
      "type": "function"
    },
    {
      "inputs": [],
      "name": "getPhotoTokenAddress",
      "outputs": [
        {
          "internalType": "address",
          "name": "",
          "type": "address"
        }
      ],
      "stateMutability": "view",
      "type": "function"
    },
    {
      "inputs": [
        {
          "internalType": "uint256",
          "name": "_usageRightsTokenId",
          "type": "uint256"
        }
      ],
      "name": "getPhotoTokenId",
      "outputs": [
        {
          "internalType": "uint256",
          "name": "",
          "type": "uint256"
        }
      ],
      "stateMutability": "view",
      "type": "function"
    },
    {
      "inputs": [
        {
          "internalType": "uint256",
          "name": "_usageRightsTokenId",
          "type": "uint256"
        }
      ],
      "name": "getUsageRightsTokenInfo",
      "outputs": [
        {
          "internalType": "uint256",
          "name": "",
          "type": "uint256"
        },
        {
          "internalType": "uint256",
          "name": "",
          "type": "uint256"
        },
        {
          "internalType": "uint64",
          "name": "",
          "type": "uint64"
        },
        {
          "internalType": "uint64",
          "name": "",
          "type": "uint64"
        },
        {
          "internalType": "bool",
          "name": "",
          "type": "bool"
        }
      ],
      "stateMutability": "view",
      "type": "function"
    },
    {
      "inputs": [
        {
          "internalType": "address",
          "name": "owner",
          "type": "address"
        },
        {
          "internalType": "address",
          "name": "operator",
          "type": "address"
        }
      ],
      "name": "isApprovedForAll",
      "outputs": [
        {
          "internalType": "bool",
          "name": "",
          "type": "bool"
        }
      ],
      "stateMutability": "view",
      "type": "function"
    },
    {
      "inputs": [],
      "name": "name",
      "outputs": [
        {
          "internalType": "string",
          "name": "",
          "type": "string"
        }
      ],
      "stateMutability": "view",
      "type": "function"
    },
    {
      "inputs": [],
      "name": "owner",
      "outputs": [
        {
          "internalType": "address",
          "name": "",
          "type": "address"
        }
      ],
      "stateMutability": "view",
      "type": "function"
    },
    {
      "inputs": [
        {
          "internalType": "uint256",
          "name": "tokenId",
          "type": "uint256"
        }
      ],
      "name": "ownerOf",
      "outputs": [
        {
          "internalType": "address",
          "name": "",
          "type": "address"
        }
      ],
      "stateMutability": "view",
      "type": "function"
    },
    {
      "inputs": [],
      "name": "renounceOwnership",
      "outputs": [],
      "stateMutability": "nonpayable",
      "type": "function"
    },
    {
      "inputs": [
        {
          "internalType": "address",
          "name": "_to",
          "type": "address"
        },
        {
          "internalType": "uint256",
          "name": "_photoTokenId",
          "type": "uint256"
        },
        {
          "internalType": "uint256",
          "name": "_usageRightTokenId",
          "type": "uint256"
        },
        {
          "internalType": "uint64",
          "name": "_startTime",
          "type": "uint64"
        },
        {
          "internalType": "uint64",
          "name": "_endTime",
          "type": "uint64"
        },
        {
          "internalType": "uint256",
          "name": "_quantity",
          "type": "uint256"
        },
        {
          "internalType": "string",
          "name": "tokenUri",
          "type": "string"
        }
      ],
      "name": "safeMint",
      "outputs": [],
      "stateMutability": "nonpayable",
      "type": "function"
    },
    {
      "inputs": [
        {
          "internalType": "address",
          "name": "from",
          "type": "address"
        },
        {
          "internalType": "address",
          "name": "to",
          "type": "address"
        },
        {
          "internalType": "uint256",
          "name": "tokenId",
          "type": "uint256"
        }
      ],
      "name": "safeTransferFrom",
      "outputs": [],
      "stateMutability": "nonpayable",
      "type": "function"
    },
    {
      "inputs": [
        {
          "internalType": "address",
          "name": "from",
          "type": "address"
        },
        {
          "internalType": "address",
          "name": "to",
          "type": "address"
        },
        {
          "internalType": "uint256",
          "name": "tokenId",
          "type": "uint256"
        },
        {
          "internalType": "bytes",
          "name": "_data",
          "type": "bytes"
        }
      ],
      "name": "safeTransferFrom",
      "outputs": [],
      "stateMutability": "nonpayable",
      "type": "function"
    },
    {
      "inputs": [
        {
          "internalType": "address",
          "name": "operator",
          "type": "address"
        },
        {
          "internalType": "bool",
          "name": "approved",
          "type": "bool"
        }
      ],
      "name": "setApprovalForAll",
      "outputs": [],
      "stateMutability": "nonpayable",
      "type": "function"
    },
    {
      "inputs": [
        {
          "internalType": "address",
          "name": "_addr",
          "type": "address"
        }
      ],
      "name": "setPhotoTokenAddress",
      "outputs": [],
      "stateMutability": "nonpayable",
      "type": "function"
    },
    {
      "inputs": [
        {
          "internalType": "bytes4",
          "name": "interfaceId",
          "type": "bytes4"
        }
      ],
      "name": "supportsInterface",
      "outputs": [
        {
          "internalType": "bool",
          "name": "",
          "type": "bool"
        }
      ],
      "stateMutability": "view",
      "type": "function"
    },
    {
      "inputs": [],
      "name": "symbol",
      "outputs": [
        {
          "internalType": "string",
          "name": "",
          "type": "string"
        }
      ],
      "stateMutability": "view",
      "type": "function"
    },
    {
      "inputs": [
        {
          "internalType": "uint256",
          "name": "tokenId",
          "type": "uint256"
        }
      ],
      "name": "tokenURI",
      "outputs": [
        {
          "internalType": "string",
          "name": "",
          "type": "string"
        }
      ],
      "stateMutability": "view",
      "type": "function"
    },
    {
      "inputs": [
        {
          "internalType": "address",
          "name": "from",
          "type": "address"
        },
        {
          "internalType": "address",
          "name": "to",
          "type": "address"
        },
        {
          "internalType": "uint256",
          "name": "tokenId",
          "type": "uint256"
        }
      ],
      "name": "transferFrom",
      "outputs": [],
      "stateMutability": "nonpayable",
      "type": "function"
    },
    {
      "inputs": [
        {
          "internalType": "address",
          "name": "newOwner",
          "type": "address"
        }
      ],
      "name": "transferOwnership",
      "outputs": [],
      "stateMutability": "nonpayable",
      "type": "function"
    }
  ],
  "bytecode": "0x60806040523480156200001157600080fd5b50604051620021813803806200218183398101604081905262000034916200029b565b604080518082018252601081526f2ab9b0b3b2a934b3b43a39aa37b5b2b760811b60208083019182528351808501909452600384526215549560ea1b9084015281519192916200008791600091620001f5565b5080516200009d906001906020840190620001f5565b5050506000620000b26200011260201b60201c565b600680546001600160a01b0319166001600160a01b038316908117909155604051919250906000907f8be0079c531659141344cd1fd0a4f28419497f9722a3daafe3b4186f6b6457e0908290a3506200010b8162000116565b506200037b565b3390565b6200012062000112565b6001600160a01b031662000133620001e6565b6001600160a01b031614620001655760405162461bcd60e51b81526004016200015c90620002df565b60405180910390fd5b6001600160a01b0381166200018e5760405162461bcd60e51b81526004016200015c9062000314565b600780546001600160a01b0319166001600160a01b0383161790556040517fd0b616cef6087aecc1a70dc6e6ea1a46d4fe598a936c27357429d34cc58f695d90620001db908390620002cb565b60405180910390a150565b6006546001600160a01b031690565b82805462000203906200033e565b90600052602060002090601f01602090048101928262000227576000855562000272565b82601f106200024257805160ff191683800117855562000272565b8280016001018555821562000272579182015b828111156200027257825182559160200191906001019062000255565b506200028092915062000284565b5090565b5b8082111562000280576000815560010162000285565b600060208284031215620002ad578081fd5b81516001600160a01b0381168114620002c4578182fd5b9392505050565b6001600160a01b0391909116815260200190565b6020808252818101527f4f776e61626c653a2063616c6c6572206973206e6f7420746865206f776e6572604082015260600190565b60208082526010908201526f6164647265737320697320656d70747960801b604082015260600190565b6002810460018216806200035357607f821691505b602082108114156200037557634e487b7160e01b600052602260045260246000fd5b50919050565b611df6806200038b6000396000f3fe608060405234801561001057600080fd5b50600436106101825760003560e01c80637d5b13d1116100d8578063a548218b1161008c578063c87b56dd11610066578063c87b56dd14610309578063e985e9c51461031c578063f2fde38b1461032f57610182565b8063a548218b146102bf578063aee2912e146102e3578063b88d4fde146102f657610182565b80638da5cb5b116100bd5780638da5cb5b1461029c57806395d89b41146102a4578063a22cb465146102ac57610182565b80637d5b13d1146102765780638aae552c1461028957610182565b806342526e4e1161013a5780636d2d812b116101145780636d2d812b1461024657806370a082311461024e578063715018a61461026e57610182565b806342526e4e1461020d57806342842e0e146102205780636352211e1461023357610182565b8063081812fc1161016b578063081812fc146101c5578063095ea7b3146101e557806323b872dd146101fa57610182565b806301ffc9a71461018757806306fdde03146101b0575b600080fd5b61019a610195366004611531565b610342565b6040516101a7919061173b565b60405180910390f35b6101b861038a565b6040516101a79190611746565b6101d86101d336600461159c565b61041c565b6040516101a791906116ab565b6101f86101f336600461146b565b610468565b005b6101f8610208366004611390565b610500565b6101d861021b366004611569565b610538565b6101f861022e366004611390565b61053f565b6101d861024136600461159c565b61055a565b6101d861058f565b61026161025c366004611344565b61059e565b6040516101a79190611cca565b6101f86105e2565b6101f8610284366004611344565b61066b565b6101f8610297366004611494565b610726565b6101d86108ad565b6101b86108bc565b6101f86102ba366004611431565b6108cb565b6102d26102cd36600461159c565b610999565b6040516101a7959493929190611cd3565b6102616102f136600461159c565b610a18565b6101f86103043660046113cb565b610a2a565b6101b861031736600461159c565b610a69565b61019a61032a36600461135e565b610aca565b6101f861033d366004611344565b610af8565b60006001600160e01b031982166380ac58cd60e01b148061037357506001600160e01b03198216635b5e139f60e01b145b80610382575061038282610bb9565b90505b919050565b60606000805461039990611d69565b80601f01602080910402602001604051908101604052809291908181526020018280546103c590611d69565b80156104125780601f106103e757610100808354040283529160200191610412565b820191906000526020600020905b8154815290600101906020018083116103f557829003601f168201915b5050505050905090565b600061042782610bd2565b61044c5760405162461bcd60e51b815260040161044390611aba565b60405180910390fd5b506000908152600460205260409020546001600160a01b031690565b60006104738261055a565b9050806001600160a01b0316836001600160a01b031614156104a75760405162461bcd60e51b815260040161044390611bf5565b806001600160a01b03166104b9610bef565b6001600160a01b031614806104d557506104d58161032a610bef565b6104f15760405162461bcd60e51b81526004016104439061196e565b6104fb8383610bf3565b505050565b61051161050b610bef565b82610c61565b61052d5760405162461bcd60e51b815260040161044390611c36565b6104fb838383610ce6565b6020015190565b6104fb83838360405180602001604052806000815250610a2a565b6000818152600260205260408120546001600160a01b0316806103825760405162461bcd60e51b815260040161044390611a28565b6007546001600160a01b031690565b60006001600160a01b0382166105c65760405162461bcd60e51b8152600401610443906119cb565b506001600160a01b031660009081526003602052604090205490565b6105ea610bef565b6001600160a01b03166105fb6108ad565b6001600160a01b0316146106215760405162461bcd60e51b815260040161044390611b06565b6006546040516000916001600160a01b0316907f8be0079c531659141344cd1fd0a4f28419497f9722a3daafe3b4186f6b6457e0908390a3600680546001600160a01b0319169055565b610673610bef565b6001600160a01b03166106846108ad565b6001600160a01b0316146106aa5760405162461bcd60e51b815260040161044390611b06565b6001600160a01b0381166106d05760405162461bcd60e51b815260040161044390611c93565b600780546001600160a01b0319166001600160a01b0383161790556040517fd0b616cef6087aecc1a70dc6e6ea1a46d4fe598a936c27357429d34cc58f695d9061071b9083906116ab565b60405180910390a150565b8686600061073382610e13565b9050826001600160a01b0316816001600160a01b0316146107665760405162461bcd60e51b8152600401610443906118c5565b6107708a89610ed3565b61077a8885610ef1565b6040518060a001604052808a81526020018681526020018867ffffffffffffffff1681526020018767ffffffffffffffff16815260200160011515815250600860008a8152602001908152602001600020600082015181600001556020820151816001015560408201518160020160006101000a81548167ffffffffffffffff021916908367ffffffffffffffff16021790555060608201518160020160086101000a81548167ffffffffffffffff021916908367ffffffffffffffff16021790555060808201518160020160106101000a81548160ff0219169083151502179055509050507f6ffbc7fd3a3f5d8a7bda2a3cdd44ba14250b18b1869791eecf1e57bd87bfd7ae8a8a8a8a8a8a604051610899969594939291906116fb565b60405180910390a150505050505050505050565b6006546001600160a01b031690565b60606001805461039990611d69565b6108d3610bef565b6001600160a01b0316826001600160a01b031614156109045760405162461bcd60e51b81526004016104439061188e565b8060056000610911610bef565b6001600160a01b03908116825260208083019390935260409182016000908120918716808252919093529120805460ff191692151592909217909155610955610bef565b6001600160a01b03167f17307eab39ab6107e8899845ad3d59bd9653f200f220920489ca2b5937696c318360405161098d919061173b565b60405180910390a35050565b600090815260086020908152604091829020825160a0810184528154808252600183015493820184905260029092015467ffffffffffffffff808216958301869052680100000000000000008204166060830181905270010000000000000000000000000000000090910460ff16151560809092018290529194929392565b60009081526008602052604090205490565b610a3b610a35610bef565b83610c61565b610a575760405162461bcd60e51b815260040161044390611c36565b610a6384848484610f10565b50505050565b6060610a7482610bd2565b610a905760405162461bcd60e51b815260040161044390611b98565b6000610a9a610f43565b90506000815111610aba5760405180602001604052806000815250610ac3565b610ac383610f7a565b9392505050565b6001600160a01b03918216600090815260056020908152604080832093909416825291909152205460ff1690565b610b00610bef565b6001600160a01b0316610b116108ad565b6001600160a01b031614610b375760405162461bcd60e51b815260040161044390611b06565b6001600160a01b038116610b5d5760405162461bcd60e51b8152600401610443906117b6565b6006546040516001600160a01b038084169216907f8be0079c531659141344cd1fd0a4f28419497f9722a3daafe3b4186f6b6457e090600090a3600680546001600160a01b0319166001600160a01b0392909216919091179055565b6001600160e01b031981166301ffc9a760e01b14919050565b6000908152600260205260409020546001600160a01b0316151590565b3390565b600081815260046020526040902080546001600160a01b0319166001600160a01b0384169081179091558190610c288261055a565b6001600160a01b03167f8c5be1e5ebec7d5bd14f71427d1e84f3dd0314c0f7b2291e5b200ac8c7c3b92560405160405180910390a45050565b6000610c6c82610bd2565b610c885760405162461bcd60e51b815260040161044390611922565b6000610c938361055a565b9050806001600160a01b0316846001600160a01b03161480610cce5750836001600160a01b0316610cc38461041c565b6001600160a01b0316145b80610cde5750610cde8185610aca565b949350505050565b826001600160a01b0316610cf98261055a565b6001600160a01b031614610d1f5760405162461bcd60e51b815260040161044390611b3b565b6001600160a01b038216610d455760405162461bcd60e51b81526004016104439061184a565b610d508383836104fb565b610d5b600082610bf3565b6001600160a01b0383166000908152600360205260408120805460019290610d84908490611d26565b90915550506001600160a01b0382166000908152600360205260408120805460019290610db2908490611d0e565b909155505060008181526002602052604080822080546001600160a01b0319166001600160a01b0386811691821790925591518493918716917fddf252ad1be2c89b69c2b068fc378daa952ba7f163c4a11628f55a4df523b3ef91a4505050565b60075460405160009182916001600160a01b0390911690610e38908590602401611cca565b60408051601f198184030181529181526020820180517bffffffffffffffffffffffffffffffffffffffffffffffffffffffff166331a9108f60e11b17905251610e8291906115e0565b6000604051808303816000865af19150503d8060008114610ebf576040519150601f19603f3d011682016040523d82523d6000602084013e610ec4565b606091505b509150506000610cde82610538565b610eed828260405180602001604052806000815250610fba565b5050565b600082815260096020908152604090912082516104fb928401906111ed565b610f1b848484610ce6565b610f2784848484610fed565b610a635760405162461bcd60e51b815260040161044390611759565b60408051808201909152600781527f697066733a2f2f00000000000000000000000000000000000000000000000000602082015290565b6060610f84610f43565b6000838152600960209081526040918290209151610fa4939291016115fc565b6040516020818303038152906040529050919050565b610fc48383611108565b610fd16000848484610fed565b6104fb5760405162461bcd60e51b815260040161044390611759565b6000611001846001600160a01b03166111e7565b156110fd57836001600160a01b031663150b7a0261101d610bef565b8786866040518563ffffffff1660e01b815260040161103f94939291906116bf565b602060405180830381600087803b15801561105957600080fd5b505af1925050508015611089575060408051601f3d908101601f191682019092526110869181019061154d565b60015b6110e3573d8080156110b7576040519150601f19603f3d011682016040523d82523d6000602084013e6110bc565b606091505b5080516110db5760405162461bcd60e51b815260040161044390611759565b805181602001fd5b6001600160e01b031916630a85bd0160e11b149050610cde565b506001949350505050565b6001600160a01b03821661112e5760405162461bcd60e51b815260040161044390611a85565b61113781610bd2565b156111545760405162461bcd60e51b815260040161044390611813565b611160600083836104fb565b6001600160a01b0382166000908152600360205260408120805460019290611189908490611d0e565b909155505060008181526002602052604080822080546001600160a01b0319166001600160a01b03861690811790915590518392907fddf252ad1be2c89b69c2b068fc378daa952ba7f163c4a11628f55a4df523b3ef908290a45050565b3b151590565b8280546111f990611d69565b90600052602060002090601f01602090048101928261121b5760008555611261565b82601f1061123457805160ff1916838001178555611261565b82800160010185558215611261579182015b82811115611261578251825591602001919060010190611246565b5061126d929150611271565b5090565b5b8082111561126d5760008155600101611272565b600067ffffffffffffffff808411156112a1576112a1611dba565b604051601f8501601f1916810160200182811182821017156112c5576112c5611dba565b6040528481529150818385018610156112dd57600080fd5b8484602083013760006020868301015250509392505050565b80356001600160a01b038116811461038557600080fd5b600082601f83011261131d578081fd5b610ac383833560208501611286565b803567ffffffffffffffff8116811461038557600080fd5b600060208284031215611355578081fd5b610ac3826112f6565b60008060408385031215611370578081fd5b611379836112f6565b9150611387602084016112f6565b90509250929050565b6000806000606084860312156113a4578081fd5b6113ad846112f6565b92506113bb602085016112f6565b9150604084013590509250925092565b600080600080608085870312156113e0578081fd5b6113e9856112f6565b93506113f7602086016112f6565b925060408501359150606085013567ffffffffffffffff811115611419578182fd5b6114258782880161130d565b91505092959194509250565b60008060408385031215611443578182fd5b61144c836112f6565b915060208301358015158114611460578182fd5b809150509250929050565b6000806040838503121561147d578182fd5b611486836112f6565b946020939093013593505050565b600080600080600080600060e0888a0312156114ae578283fd5b6114b7886112f6565b965060208801359550604088013594506114d36060890161132c565b93506114e16080890161132c565b925060a0880135915060c088013567ffffffffffffffff811115611503578182fd5b8801601f81018a13611513578182fd5b6115228a823560208401611286565b91505092959891949750929550565b600060208284031215611542578081fd5b8135610ac381611dd0565b60006020828403121561155e578081fd5b8151610ac381611dd0565b60006020828403121561157a578081fd5b813567ffffffffffffffff811115611590578182fd5b610cde8482850161130d565b6000602082840312156115ad578081fd5b5035919050565b600081518084526115cc816020860160208601611d3d565b601f01601f19169290920160200192915050565b600082516115f2818460208701611d3d565b9190910192915050565b60008351602061160f8285838901611d3d565b84549184019183906002810460018083168061162c57607f831692505b85831081141561164a57634e487b7160e01b88526022600452602488fd5b80801561165e576001811461166f5761169b565b60ff1985168852838801955061169b565b6116788b611d02565b895b858110156116935781548a82015290840190880161167a565b505083880195505b50939a9950505050505050505050565b6001600160a01b0391909116815260200190565b60006001600160a01b038087168352808616602084015250836040830152608060608301526116f160808301846115b4565b9695505050505050565b6001600160a01b039690961686526020860194909452604085019290925267ffffffffffffffff908116606085015216608083015260a082015260c00190565b901515815260200190565b600060208252610ac360208301846115b4565b60208082526032908201527f4552433732313a207472616e7366657220746f206e6f6e20455243373231526560408201527f63656976657220696d706c656d656e7465720000000000000000000000000000606082015260800190565b60208082526026908201527f4f776e61626c653a206e6577206f776e657220697320746865207a65726f206160408201527f6464726573730000000000000000000000000000000000000000000000000000606082015260800190565b6020808252601c908201527f4552433732313a20746f6b656e20616c7265616479206d696e74656400000000604082015260600190565b60208082526024908201527f4552433732313a207472616e7366657220746f20746865207a65726f206164646040820152637265737360e01b606082015260800190565b60208082526019908201527f4552433732313a20617070726f766520746f2063616c6c657200000000000000604082015260600190565b60208082526025908201527f546f6b656e206f776e6572206d757374206265207468652073616d652061646460408201527f726573732e000000000000000000000000000000000000000000000000000000606082015260800190565b6020808252602c908201527f4552433732313a206f70657261746f7220717565727920666f72206e6f6e657860408201526b34b9ba32b73a103a37b5b2b760a11b606082015260800190565b60208082526038908201527f4552433732313a20617070726f76652063616c6c6572206973206e6f74206f7760408201527f6e6572206e6f7220617070726f76656420666f7220616c6c0000000000000000606082015260800190565b6020808252602a908201527f4552433732313a2062616c616e636520717565727920666f7220746865207a6560408201527f726f206164647265737300000000000000000000000000000000000000000000606082015260800190565b60208082526029908201527f4552433732313a206f776e657220717565727920666f72206e6f6e657869737460408201527f656e7420746f6b656e0000000000000000000000000000000000000000000000606082015260800190565b6020808252818101527f4552433732313a206d696e7420746f20746865207a65726f2061646472657373604082015260600190565b6020808252602c908201527f4552433732313a20617070726f76656420717565727920666f72206e6f6e657860408201526b34b9ba32b73a103a37b5b2b760a11b606082015260800190565b6020808252818101527f4f776e61626c653a2063616c6c6572206973206e6f7420746865206f776e6572604082015260600190565b60208082526029908201527f4552433732313a207472616e73666572206f6620746f6b656e2074686174206960408201527f73206e6f74206f776e0000000000000000000000000000000000000000000000606082015260800190565b6020808252602f908201527f4552433732314d657461646174613a2055524920717565727920666f72206e6f60408201527f6e6578697374656e7420746f6b656e0000000000000000000000000000000000606082015260800190565b60208082526021908201527f4552433732313a20617070726f76616c20746f2063757272656e74206f776e656040820152603960f91b606082015260800190565b60208082526031908201527f4552433732313a207472616e736665722063616c6c6572206973206e6f74206f60408201527f776e6572206e6f7220617070726f766564000000000000000000000000000000606082015260800190565b60208082526010908201527f6164647265737320697320656d70747900000000000000000000000000000000604082015260600190565b90815260200190565b948552602085019390935267ffffffffffffffff91821660408501521660608301521515608082015260a00190565b60009081526020902090565b60008219821115611d2157611d21611da4565b500190565b600082821015611d3857611d38611da4565b500390565b60005b83811015611d58578181015183820152602001611d40565b83811115610a635750506000910152565b600281046001821680611d7d57607f821691505b60208210811415611d9e57634e487b7160e01b600052602260045260246000fd5b50919050565b634e487b7160e01b600052601160045260246000fd5b634e487b7160e01b600052604160045260246000fd5b6001600160e01b031981168114611de657600080fd5b5056fea164736f6c6343000800000a",
  "linkReferences": {},
  "deployedLinkReferences": {}
}